:020000040800F2
:100000000050002001010008D1060008D1060008B8
:10001000D1060008D1060008D10600080000000043
:10002000000000000000000000000000D1060008F1
:10003000D106000800000000D106000819010008E0
:100040001B0100081B0100081B0100081B01000820
:100050001B0100081B0100081B0100081B01000810
:100060001B0100081B0100081B0100081B01000800
:100070001B0100081B0100081B0100081B010008F0
:100080001B0100081B0100081B0100081B010008E0
:10009000412800081B0100081B0100081B01000883
:1000A0001B0100081B0100081B0100081B010008C0
:1000B0001B0100081B0100081B0100081B010008B0
:1000C0001B0100081B0100081B0100081B010008A0
:1000D0001B010008F90D00081B0100081B010008A6
:1000E0001B0100081B0100081B010008DFF80CD0F1
:1000F00000F02AF800480047C529000800500020F9
:100100000648804706480047FEE7FEE7FEE7FEE7B1
:10011000FEE7FEE7FEE7FEE7FEE7FEE7FD0B000871
:10012000ED00000840EA01039B0703D009E008C97D
:10013000121F08C0042AFAD203E011F8013B00F8AC
:10014000013B521EF9D27047064C074D06E0E068AD
:1001500040F0010394E8070098471034AC42F6D30E
:10016000FFF7C8FFB8300008F830000810B50C4899
:10017000806940F01D000A4988610121094800F0AA
:1001800093F90949094800F004F90949094800F0C0
:1001900000F90949094800F0FCF800F0CFFA10BD59
:1001A0000010024000023000C02E0008000801408C
:1001B000C42E0008000C0140C82E000800100140A9
:1001C00008B50B4909684FF47A72B1FBF2F1891C4A
:1001D0000622B1FBF2F148430146009100BF00BF87
:1001E000009A521E0092002AFAD100BF08BD0000FA
:1001F0000000002030B500F00F010D4C04EB81032E
:10020000D3F8002C00F0800343B148F6CF731340BD
:10021000254605EB8104C4F8003C07E04CF68F73DB
:100220001340034D05EB8104C4F8003C30BD0000D1
:100230000050004070B500F00F02104D05EB820435
:10024000D4F8003C00F080045CB101F030045C4064
:1002500048F6BF752C40094E06EB8205C5F8004CE8
:100260000AE001F440545C404BF68F752C40034E7D
:1002700006EB8205C5F8004C70BD00000050004040
:1002800030B5044604254FF4302000F06FF80546E1
:10029000042D17D10C48006940F002000A4908619A
:1002A00008464461006940F0400008614FF4302086
:1002B00000F05CF805460448006941F6FD7108400D
:1002C00001490861284630BD0020024004200B4946
:1002D000C96801F0010109B101200EE00749C968B0
:1002E00001F0040109B1022007E00449C96801F0E6
:1002F000100109B1032000E00420704700200240F3
:100300000348006940F0800001490861704700001F
:100310000020024070B504460D460426F00200F0AD
:1003200025F80646042E11D10948006940F0010065
:10033000074908612580F00200F018F806460448D5
:10034000006941F6FE71084001490861304670BD00
:100350000020024002480349486003484860704753
:100360002301674500200240AB89EFCD00B502466E
:100370000423FFF7ABFF034603E0FFF7A7FF0346A5
:10038000521E012B01D1002AF7D102B905231846CC
:1003900000BD2DE9F0410246002500260020002383
:1003A0000024002791F803C00CF00F0591F803C05A
:1003B0000CF0100CBCF1000F03D091F802C04CEA15
:1003C000050591F800C0BCF1000F31D01468002081
:1003D0002BE04FF0010C0CFA00F3B1F800C00CEA6E
:1003E00003069E4220D183004FF00F0C0CFA03F756
:1003F000BC4305FA03FC4CEA040491F803C0BCF1C9
:10040000280F06D14FF0010C0CFA00FCC2F814C002
:100410000AE091F803C0BCF1480F05D14FF0010C80
:100420000CFA00FCC2F810C0401C0828D1D314609C
:10043000B1F800C0BCF1FF0F34DD546800202EE09D
:1004400000F1080C4FF0010808FA0CF3B1F800C0F5
:100450000CEA03069E4221D183004FF00F0C0CFAE8
:1004600003F7BC4305FA03FC4CEA040491F803C00B
:10047000BCF1280F05D100F1080C08FA0CF8C2F8FD
:10048000148091F803C0BCF1480F07D100F1080CAB
:100490004FF0010808FA0CF8C2F81080401C082838
:1004A000CED35460BDE8F081F0B50A4600230024A5
:1004B0000021002500F00046B6F1004F02D11D4E8C
:1004C000F16901E01B4E7168C0F3034583B200F48B
:1004D0004016B6F5401F08D121F07061154E7668C0
:1004E00026F07066134F7E6012E000F48016B6F5B9
:1004F000801F06D1032606FA05F4A14341F070617E
:1005000006E0460D360103FA06F6B14341F070618C
:1005100022B1460D360103FA06F6314300F00046DB
:10052000B6F1004F02D1034EF16101E0014E71605E
:10053000F0BD0000000001402DE9F04704460D46E3
:100540004FF0FF0A2078D02872DB2078D7286FDCA4
:10055000207805F8010B14F8010BD038082868D270
:10056000DFE800F00412151821335672504807686E
:1005700005F8017B380A05F8010B380C05F8010B6A
:10058000380E05F8010B74E0FFF7E4FE71E0FFF7A9
:10059000B7FE6EE027683846FFF772FE042801D0E8
:1005A0004FF0FF0A65E0D4F80080A68806E018F84E
:1005B000011BFF2902D04FF0FF0A04E0301EA6F114
:1005C00001018EB2F3D100BF53E02768A688382E10
:1005D00002DD4FF0FF0A1AE0A41D12E014F8019B9F
:1005E0002EB114F8011B49EA0129701E86B2494652
:1005F0003846FFF78FFE042802D04FF0FF0A05E0CF
:10060000BF1C301EA6F101018EB2E7D100BF30E061
:10061000D4F80080A6883E2E02DD4FF0FF0A12E0DB
:10062000002005F8010B09E026B998F800A005E0C4
:1006300023E01AE018F8010B05F8010B301EA6F1B3
:1006400001018EB2F0D114E000BFBFF34F8F194803
:10065000006800F4E06018490843001D154908606F
:10066000BFF34F8F00BF00BFFEE76D1E4FF0FF0AC4
:1006700000BF00BF85F800A017E01048006890B1E7
:100680000F4BDFF840C0DCF800C003EB8C110E4BC1
:10069000DFF838C0DCF800C003EB8C10074B1B6898
:1006A0005A68904701E0FF202870BDE8F0870000FD
:1006B000002004E00CED00E00000FA05140000202A
:1006C0008414002064000020840400205C000020CA
:1006D00072B61749086880F3088800BF00F02EF84A
:1006E000002412E000F070F8FA20FFF769FD00F036
:1006F00063F800F043F8FA20FFF762FD00F036F8E7
:100700004FF47A70FFF75CFD641C052CEADB00BF38
:10071000BFF34F8F0748006800F4E06006490843C4
:10072000001D04490860BFF34F8F00BF00BFFEE704
:10073000000000080CED00E00000FA0510B50848C4
:10074000806940F00800064988614FF4405005492F
:100750000860054903481438FFF71BFE10BD000070
:1007600000100240140C0140A02E00084FF400506D
:100770000149086070470000140C01404FF400501C
:100780000149086070470000100C014000B50246A6
:1007900002F0010010B1FFF7F1FF01E0FFF7E6FF03
:1007A00000BD00000348006880F400500149086063
:1007B000704700000C0C01404FF480500149086064
:1007C00070470000140C01404FF48050014908604C
:1007D00070470000100C014000B5024602F0010015
:1007E00010B1FFF7F1FF01E0FFF7E6FF00BD0000E9
:1007F00070B5002400F046FA054605F0040008B183
:1008000044F0400405F0020008B144F0400405F053
:10081000010008B144F0100400F052FA054605F05A
:10082000080008B144F0080405F0040008B144F0E1
:10083000020405F0020008B144F0010400F00EFAD1
:1008400008B144F0040405480068604028B1A0B233
:1008500000F076FD08B10148046070BD280000205A
:1008600000F0010149B100BF0949096821F0F00118
:1008700041F04001064A116009E000BF04490968DF
:1008800021F0F00141F07001014A116000BF704792
:10089000040C014010B537200D49086048150D497A
:1008A000086000BF0B481038006820F0F00040F0EE
:1008B000400008491039086000BF07490448103853
:1008C000FFF767FD054902481038FFF762FD10BDCC
:1008D00010080140140C0140B02E0008B42E00088E
:1008E00010B504490448FFF754FD04490448FFF7D4
:1008F00050FD10BDB82E000800080140BC2E0008B5
:10090000000C014010B530200D49086048150D4914
:1009100008600D490A481038FFF73BFD0B490848AD
:100920001038FFF736FD00BF06481038006820F089
:10093000F00040F0400003491039086000BF10BDCE
:1009400010080140140C0140A82E0008AC2E00082D
:1009500010B50748806940F0040005498861881592
:1009600004490860044903481438FFF712FD10BD1C
:100970000010024014080140A42E000829B1064AC4
:1009800092690243044B9A6104E0034A92698243EC
:10099000014B9A61704700000010024030B5002101
:1009A0000022002400232D4D6D6805F00C0121B1BB
:1009B000042905D0082923D105E0294D056022E04E
:1009C000274D05601FE0254D6D6805F47012234D1D
:1009D0006D6805F48034022505EB92421CB9214D67
:1009E000554305600BE01D4D6D6805F400351DB1E4
:1009F0001C4D5543056002E0194D5543056002E06A
:100A0000174D056000BF00BF144D6D6805F0F00183
:100A10000909154D6B5C0568DD4045600F4D6D683B
:100A200005F4E061090A104D6B5C4568DD408560A6
:100A30000A4D6D6805F46051C90A0B4D6B5C456841
:100A4000DD40C560054D6D6805F44041890B074DDB
:100A50006B5CC568B5FBF3F5056130BD0010024065
:100A600000127A0000093D006C0000207C0000208C
:100A700010B500F001F810BD0CB5002001900090F9
:100A80003348006840F480303149086000BF304886
:100A9000006800F4003000900198401C019000981C
:100AA00018B90198B0F5A06FF1D12948006800F499
:100AB000003010B10120009001E00020009000986B
:100AC000012843D12348006840F010002149086004
:100AD0000846006820F0030008600846006840F0FF
:100AE000010008601A484068194948600846406893
:100AF00048600846406840F48060486008464068A6
:100B000020F47C1048600846406840F4A200486029
:100B10000846006840F08070086000BF0C4800681C
:100B200000F000700028F9D00948406820F0030068
:100B3000074948600846406840F00200486000BF2E
:100B40000348406800F00C000828F9D10CBD0000F3
:100B5000001002400020024010B5002100200022B9
:100B6000214B5B6803F00C0121B1042906D0082950
:100B700028D107E01D4B1E4C236027E01B4B1C4C6B
:100B8000236023E0184B5B6803F47010164B5B681E
:100B900003F48032022303EB904022B9154B434308
:100BA000134C23600DE0104B5B6803F4003323B15A
:100BB000104B43430E4C236003E00C4B43430C4C5F
:100BC000236003E0094B0A4C236000BF00BF064BC3
:100BD0005B68C3F30313084CE15C054B1B68CB4017
:100BE000034C236010BD00000010024000127A0088
:100BF0000000002000093D000400002010B513484B
:100C0000006840F00100114908600846406810493A
:100C100008400E494860084600680E4908400B49E4
:100C200008600846006820F4802008600846406894
:100C300020F4FE0048604FF41F008860FFF718FFA3
:100C40004FF000600449086010BD00000010024031
:100C50000000FFF8FFFFF6FE08ED00E00148006825
:100C6000704700004800002008B50121684600F0E8
:100C700037F8012802D19DF8000008BD4FF0FF3081
:100C8000FBE7000000200C49097801F0010109B1DF
:100C900040F002000849097801F0040109B140F070
:100CA00004000649096831B90349097801F00201D5
:100CB00009B140F0020070474000002048000020C9
:100CC0000020704701B50121684600F063F8012853
:100CD00002D19DF8000008BD4FF0FF30FBE7000097
:100CE00030B5024600201EE04B1E99B20F4BB3F9FF
:100CF00004300E4CB4F90640A34214D00B4C638868
:100D00005C1C0A4D6C8005F10804E45C02F8014BA0
:100D10002B465B88DBB22C4663802346DB885B1C5A
:100D20001BB2E380401C0029DED130BD6C030020E3
:100D300010B5252000F01F0201219140114A4309FE
:100D400042F8231000BF00200F4908600F490860D7
:100D50000F49087108208871002048714FF4E13074
:100D60000860084600F048FB252000F01F02012122
:100D700091404209920002F1E022C2F8001100BF46
:100D8000012010BD80E100E0440000204800002068
:100D90004C0000202DE9F04104460D4600261BE0E2
:100DA000681E85B2124880881149C988401A0FFA16
:100DB00080F8B8F1FF0F0FDC0D48078814F8011B0D
:100DC0000830C155781CC7B2094807808088401C8C
:100DD00000B207498880761C002DE1D12EB1012296
:100DE00040F22771034800F0C0F83046BDE8F081BA
:100DF000640200200038014070B53448008834494E
:100E0000086040F22551314800F085F850B3314870
:100E100080883049C988401A05B2FF2D22DC2B4852
:100E200000F034F9C4B22B490888411C294A1180CA
:100E300002F108010C5444B90221244800F05EF884
:100E400018B101202449086002E00020224908600E
:100E500020480088C0B21F49088008468088401C8E
:100E600000B2888040F22771184800F054F820B38F
:100E70001A480068012803D1144800F00CF923E057
:100E80001748B0F904001649B1F90610884215D088
:100E900013484688701C124A508002F10800815D98
:100EA0000A4800F0FDF80E484088C0B20C4948805E
:100EB0000846C088401C00B2C88005E0002240F20D
:100EC0002771024800F051F870BD00000038014061
:100ED000400000206C030020480000204400002057
:100EE0006402002021B1828942F40052828104E030
:100EF00082894DF6FF731A408281704702460020B6
:100F0000B1F5007F00D100BF13880B400BB1012069
:100F100000E00020704770B5024600240023002541
:100F2000002040F66A16B14200D100BFC1F342155D
:100F300001F01F03012606FA03F3012D02D1968961
:100F4000334006E0022D02D1168A334001E0968A32
:100F500033400C12012606FA04F41688344013B10B
:100F60000CB1012000E0002070BDF0B50346002464
:100F700000260025002040F66A17B94200D100BFC4
:100F80001846C1F3421401F01F06012707FA06F5BF
:100F9000012C01D10C3004E0022C01D1103000E012
:100FA00014301AB107682F43076002E00768AF43A7
:100FB0000760F0BD2DE9F04786B005460E460024D7
:100FC000A24600BFA1460027B08900B100BF2F464E
:100FD0002C8A4CF6FF700440F08804432C82AC89C4
:100FE0004EF6F3100440B0883189084371890843F4
:100FF0000443AC81AC8A4FF6FF400440B0890443FF
:10100000AC8201A8FFF7CAFC1F48874202D1DDF875
:1010100010A001E0DDF80CA0A88900F4004040B168
:101020000AEBCA0000EB0A1031684900B0FBF1F886
:1010300007E00AEBCA0000EB0A1031688900B0FB38
:10104000F1F86420B8FBF0F004012009642101FBF1
:101050001089A88900F4004040B1322000EBC9009B
:10106000B0FBF1F000F00700044308E0322000EB91
:1010700009106421B0FBF1F000F00F0004432C8153
:1010800006B0BDE8F08700000038014001468888BE
:10109000C0F308007047818941F0010181817047E8
:1010A000C1F30802828070470020704770B50B4D75
:1010B0000C460346D5E90C0188420BD9401A8442FC
:1010C00000DD044622461846FFF72CF8686B2044E2
:1010D000686300E00024204670BD0000A8000020E6
:1010E000002070472DE9F041194C0D460746D4E920
:1010F0000401401A17490A88101A002802DC00204F
:10110000BDE8F081854200DD0546D4E906020026EF
:10111000904210D3104A0988431911448B420AD3D4
:101120000E1A904632463946FEF7FCFF3744AD1B97
:101130004046C4F8188035B12A463946FEF7F2FF1A
:10114000A0692844A0612169A81901442161D7E759
:10115000A8000020EC2E0008DA01002010B5054C94
:101160006068002805D10120606000F005F80020CB
:10117000606010BDA80000202DE9F047224CA06857
:1011800000283BD0D4E90401421AE0684FF0000681
:10119000104335D01D481E4FDFF878800088DFF8F7
:1011A00078903D182046C1696AB1A069814203D395
:1011B0008818A84200D36A1A99F8003038F813004A
:1011C000904200DA02461548E660007840F0800060
:1011D00001F0FCFAE1690144E16162698D42024477
:1011E000626100D1E761216991420BD199F8002039
:1011F00038F81210814205D10120E060BDE8F08787
:10120000A660FBE7E660F9E7A8000020EC2E0008E6
:10121000DA010020F42E000883000020E92E0008E7
:1012200010B50B4C206A18B1A06A401CA06210BD1A
:1012300001202062606200F00DF8002060622062F0
:10124000D4E90C018842F2D0401AFFF749FF10BDE3
:10125000A800002010B5134C144A1348216B1288C3
:10126000144B081A101A124A1B7832F813209042B5
:101270000EDB1148007800F003FF216B0844206367
:10128000A06A00280CD0616A002909D1401E06E03E
:101290000120E062606A002802D0A06A401CA062BF
:1012A00010BD0000A80000201A020020EE2E000849
:1012B000F42E000883000020EA2E000810B5044632
:1012C000400702D52046FFF7ABFF200704D5204694
:1012D000BDE81040FFF742BF10BD704708B50121BF
:1012E0006846FFF7E3FE012802D04FF0FF3008BD4B
:1012F0009DF8000008BD00207047002070470000E6
:1013000010B50B4800F042F8002810D0084A0948F0
:10131000116801700B0A43700B0C8370090EC170C9
:10132000117901715179417191798171012010BD5B
:10133000E00000201801002010B500F039F810BDC1
:101340000F4910B50978C1B10E49A12202230A70D4
:1013500020224A7000228A70CA700A714A718B7109
:10136000CA710872000A487207480A22007840F0E1
:10137000800001F02BFA012010BD002010BD0000FC
:10138000810000205A020020E82E0008014607488C
:10139000007908710548807988710448407948715E
:1013A0000248006808600120704700004C000020DF
:1013B00010B501210846FFF7E1FA01218803FFF784
:1013C000DDFAFFF7B5FC05490548FEF7E2FF0549E0
:1013D0000348FEF7DEFF012010BD0000A630000824
:1013E00000080140AA30000810B5FFF7A1FC10BDAD
:1013F000014601207047000070B50546284CA879C9
:10140000082801D0002070BD0020A080687920B19C
:10141000012809D002280BD102E00020208109E038
:101420004FF48060208105E04FF4C060208101E02E
:101430000020E8E700BF287920B1012809D0022860
:101440000BD102E00020E08009E04FF40050E08082
:1014500005E04FF44050E08001E00020D3E700BFFA
:10146000287910490871A8798871687948712868C5
:101470000860286820600C2060810020A08121463F
:101480000948FFF797FD012240F225510648FFF772
:101490006CFD01210448FFF725FD0120B3E70000A2
:1014A000740400204C0000200038014001B50121E7
:1014B0006846FFF717FE012802D04FF0FF3008BD45
:1014C0009DF8000008BD000010B510480024104928
:1014D00044608460C4600461C0E90541C0E9071448
:1014E00044620C498462C0E90B4141630480FFF708
:1014F0007BFF06484FF41651383001600471447187
:1015000008218171FFF778FF10BD0000A8000020BE
:10151000DA0100201A02002010B5FFF7D5FF10BD38
:1015200070B5174C00250126206A50B9D4E90C107B
:10153000814206D11348814203D02063E5622562CF
:101540006063A06A70B1206A60B9E06A50B926622F
:10155000FFF780FE2562D4E90C01884202D0401AD0
:10156000FFF7BEFDD4E90101084308D1D4E9040125
:10157000884204D06660A660FFF7FEFD656070BD1E
:10158000A80000201A0200200020704700207047A9
:1015900000207047024910B50880FFF729FF10BDF1
:1015A000A8000020084810B5C178026861F31F62E6
:1015B00006490A6002790A7142794A718079887114
:1015C0000846FFF719FF10BD18010020E0000020B9
:1015D00010B504462046FEF70DFE43F230012046CA
:1015E000FEF728FE10BD000010B50246937803F008
:1015F0000F019088937803F0800353B1294B1B8827
:10160000294C246804EB01142360431C23F00100DF
:1016100020E0244B1B88244C246804EB0114A360B5
:101620003E280ED900F11F0323F01F000123C3EB56
:10163000401343F400431C4C246804EB0114E360A2
:1016400008E0431C23F001004302174C246804EB1C
:101650000114E360134B1B880344124C2380D3789E
:1016600003F0030333B1012B07D0022B08D0032B67
:101670000FD10BE04FF400700BE04FF4806008E0F6
:10168000002000230BB140F4807002E04FF4C060F2
:1016900000BF00BF0843054C04EB8103C3F8000CF6
:1016A00010BD00003C000020380000200050004029
:1016B00030B94021034A11801146098880311180D8
:1016C000704700003C00002000F086BA70B1012194
:1016D0000A4A116000211160121D11604FF4E0519F
:1016E000121F11609115064A116006E00321034A9A
:1016F00011609115024A121D11607047405C004054
:101700001008014010B50B4C0B48A28801788A42A2
:1017100000D9CAB21AB907490020183908718020C7
:10172000216801F053F8216801442160A188081A5A
:10173000A08010BD98000020D12E000810B5064CE6
:101740000020216800F09CFC216801442160A188F0
:10175000081AA08010BD000098000020704710B546
:10176000044600212046FEF765FD10BD10B5044675
:1017700043F220012046FEF75DFD10BD2DE9F04744
:10178000DFF844820646A8F1080580074FF0000AFA
:10179000A5F1180424D500F0EDFF98F800004746A5
:1017A000C009FFF7DBFFF888A8803978C1F3411042
:1017B00010B1012877D17DE098F80120834FDFF840
:1017C00010920C2A6FD2DFE802F0060C951C952BC4
:1017D0003B953F45526100F05FFD33E0FFF792FF1C
:1017E00096E0002000F096FD00285CD000F0C8FFD5
:1017F000386820B16169002921D0082050E04846AE
:1018000053E0012000F086FD002873D000F0B8FFFF
:1018100038680028F3D06169002979D004203FE0BE
:1018200011F01F0F66D198F80200012140F08000EE
:10183000207000F07F0000F08BFF00F0A1FF67E058
:1018400000F050FC78B3C9E711F01F0F52D15E4889
:101850001F3819E000F0B4FD28B300F091FF38689C
:1018600018B1616929B301201AE05A481DE001F05E
:101870001F0101293ED16178A9B198F80400A1782F
:10188000884237D2544908442860A7E700F060FE38
:1018900048B100F075FF386830B1616949B1022084
:1018A00001F0E6FA34E025E04C48016809B1084649
:1018B00080472DE011F01F0004D0012805D0022838
:1018C00018D111E000F02AF913E000F02DF9F8B971
:1018D00000F080F9E0B900F0CFF8C8B900F0CEF818
:1018E000B0B900F01FF904E000F0C4F880B900F0CE
:1018F00017F968B998F80010090604D4B8F806007A
:1019000008B1002000E0802000F02CFFA5F804A022
:10191000700735D598F80000474600062ED4A888F1
:1019200058B3FFF70BFFA88838BB3878C0F34111D4
:10193000F1B101291CD110F01F0004D0012805D0FD
:10194000022815D10EE000F077F810E000F07AF8E8
:1019500098B900F047F880B900F046F868B900F08F
:101960006FF804E000F03CF838B900F067F820B9EF
:10197000802000F0F7FEA5F804A001E000F006FFCB
:10198000300713D598F80000000606D5A8882179FD
:1019900008430BD0FFF7B6FE08E02078010605D516
:1019A00000F07F002070002100F0D2FE700602D50A
:1019B0000020FFF70DFE300604D5BDE8F04780207B
:1019C000FFF706BEBDE8F087A0000020602F0008EA
:1019D0005C2F0008542F00082C000020582F00080E
:1019E000002070470020704710B51048104A017958
:1019F0001278914203D00F4A1278914214D1417863
:101A000021B1022905D020290ED10AE0FFF7BEFD41
:101A100002E04088FFF7BCFD30B100F0B1FE0120CC
:101A200010BDFFF7BFFDF7E7002010BDA0000020AC
:101A3000E62E0008E72E00080020704700207047BF
:101A40000020704710B50948094A0179127891427F
:101A500009D14078092806D100F0D8FA18B100F071
:101A60008FFE012010BD002010BD0000A00000204E
:101A7000D22E0008002070470020704770B5224920
:101A8000224A08791278904203D0214A1278904273
:101A900038D11D4849781F4C1F4D408804291FD05C
:101AA00007DC79B101290FD002290BD0032929D1F4
:101AB00011E0202906D021291AD022291BD0232960
:101AC00020D11BE02C6011E0FFF717FC05E02C6033
:101AD000FFF718FE0AE0FFF70EFC0028F7D111E02F
:101AE000FFF7E2FA0CE000BF00F04AFE012070BDF3
:101AF000FFF706FCF1E7FFF74DFD01E0FFF744FDBE
:101B00000028F1D1002070BDA0000020E62E0008C2
:101B1000E72E0008180100209800002000207047E0
:101B200000207047002070472DE9F041224C2349E6
:101B30002079097888423DD16078214D214E224F8D
:101B40000C2837D2DFE800F03606212D363636363F
:101B50003616243200F070F960B3E078012802D024
:101B6000032803D003E01948286000E02E60FFF747
:101B7000C9FD13E0E078022802D0032803D00DE06D
:101B8000134828600AE02E6008E000F03DF90AE002
:101B900000F014FA0CE000BF00F0F2FD0120BDE8F7
:101BA000F08100F03FF928B12F60E0E700F024FA5F
:101BB0000028F1D10020F2E7A0000020D22E00087A
:101BC0009800002036000020180100205901002054
:101BD0009A01002000207047084800214170C16030
:101BE000016141618161C161418081800162416225
:101BF0008162C180C162018170470000E80000205D
:101C00002DE9F05FDFF84081DFF840A1DFF840B157
:101C10000127504C08F101090025A561606910B148
:101C2000A761BDE8F09F6761A088618888421AD3E8
:101C3000206AC0B9E561A580012398F8001008F179
:101C40000102184600F098FF0004000C60800CD0E0
:101C50004149C4F81C800978012902D8C4F81C90B5
:101C60003BE0401C60806088B8BBE068A8BB21698D
:101C700099B339484246007801280FD81570A580DD
:101C80000223521C0021012000F076FF0004000C0A
:101C9000608001D0C4F81C9025611EE01678202ECB
:101CA00000D3002607FA06F0084240D0701CC1B2EB
:101CB0001170A580022308F10102012000F05CFFF1
:101CC0000104090C618003D0491CC4F81C806180A8
:101CD000216907FA06F0814321616088216A014386
:101CE0002AD0A188401A9BF8001086B23AF8110059
:101CF000B04200D20646676218483246E169007871
:101D000040F0800000F062FDE06915493044E06178
:101D1000A088304480B2A080098888420AD29BF80B
:101D200000103AF81100B04204D1276205E0761C99
:101D3000F6B2B4E7256200E065626561A06900283B
:101D40007FF46BAF6DE7000058010020DA2E000829
:101D500083000020E8000020DE2E0008D32E0008BB
:101D6000E02E0008F8B5194C194D0026E08800B99E
:101D7000A5621848A16A007800F082F90004A16AFF
:101D8000000C0144A162E18801448BB2E3800AD0D7
:101D9000114909888B4206D2114A1049127831F84C
:101DA0001210814210D90F480178012001290090BA
:101DB00003D80021064A022003E029786A1C022089
:101DC0005B1E00F0F7FFE680F8BD0000E800002091
:101DD00099010020D42E0008E22E0008DA2E000817
:101DE00083000020DF2E000810B50446000702D54E
:101DF0002046FFF705FF600704D52046BDE81040E8
:101E0000FFF7B0BF10BD0000034804498078085CAC
:101E10000349087001207047A00000203400002012
:101E20001801002010B500F0A5FE0249087001203D
:101E300010BD0000180100200B4910B5C878002221
:101E4000012804D0022804D0032806D103E0074A61
:101E500002E0002010BD064A521C8978002300F0E1
:101E60008BFE012010BD0000A000002058010020C2
:101E7000350000202DE9F05F4648007800287DD02D
:101E8000454800273D4601784A1C0270434A1478B1
:101E9000042204EB440A02FA0AF2521E914201DBC8
:101EA000057001273E4900230A88FF2A01D2521CEF
:101EB0000A803C4A8E46098832F81490894500D140
:101EC00001238346002100699BF8006043E000BFC6
:101ED0004FF0000C6FB1344A545CFF2C01D2641CEB
:101EE0005454324C645C24B1525CA24201D34FF092
:101EF000010C2E4A4FF0020808FA0AF8525C02FA66
:101F000008F44C4502DA0AB1012400E0002433B1A0
:101F10002CB14FF0010808FA01F848EA0000DFF898
:101F2000908018F8018042450AD01F4A525C424511
:101F300003D301228A40104300261C4A02F8018084
:101F4000BCF1000F05D014B901228A401043164A93
:101F50005554491CC9B2174A12789142B8D3CBF8EC
:101F6000100059468BF800600BB1AEF8005008B174
:101F7000CA6852B1104A1378012200E003E09A4087
:101F80009043CBF81000BDE8F09FBDE8F05F002063
:101F9000FFF736BE81000020E8000020830000200B
:101FA00030000020D62E0008320000203300002030
:101FB00034000020DE2E00085801002010B50A4829
:101FC00009498078C97810B1084A815409E0002095
:101FD000074B084A02E01954401CC0B21478A042D2
:101FE000F9D3012010BD0000A00000203300002024
:101FF00034000020DE2E0008034810B5807800F081
:10200000D7FE012010BD0000A00000200C4908B53B
:10201000C8780022012804D0022804D0032806D161
:1020200003E0002008BD074A00E0074A521C0023D5
:102030000093CB88897800F0BDFE012008BD000028
:10204000A0000020990100203500002010B50548AF
:10205000C06940F400000349C86100F005F8FEF7CC
:1020600077FC10BD0010024014200121814042097C
:10207000920002F1E022C2F8001100BF70477047E1
:102080002DE9F04305460C4605F00F06124800689E
:1020900000EB061080681149022202FB00190E486D
:1020A000006800EB06108089C0F309074FF00008B4
:1020B00005E039F8041B2180A41C08F10108781CF4
:1020C000B8EB500FF5D34FF440512846FEF7B2F865
:1020D0003846BDE8F0830000380000200060004072
:1020E000704700007CB54048A0F120050178A0F1C0
:1020F000080411F01F0102D0012973D15CE0C378FC
:10210000394839492038394AC0788978082B69D24A
:10211000DFE803F06804123F6868082C3448206048
:10212000122047E0117800295CD018B131482060B6
:102130000A203FE03048FAE712780AB9012851D066
:1021400018B12E480090002008E02D48FAE7009AC8
:10215000137813B153881A440092401C8142F6D17F
:1021600000980178E9B32060408823E01278C2B378
:1021700018B124480090002008E02348FAE7009AAC
:10218000137813B153881A440092401C8142F6D14F
:10219000E6E71E480090002005E0009B1A780AB18F
:1021A0001A440092401C8142F7D100980178C1B1D5
:1021B00020600078019005E001A9684600F02AF847
:1021C00000280DD0A1880198814208D9104980B219
:1021D000A0800978491E084201D101202871012000
:1021E0007CBDFFE70020FBE7A0000020CD2E00080B
:1021F0008A2F00089D2F00089C2F00080A30000835
:102200009E2F00080C3000080B3000080E3000082C
:10221000D12E000830B5164A164C174BD5781279D6
:10222000212D02D0222D20D115E02478A2421CD1EC
:10223000124A1478124A12780CB9012A15D042B108
:10224000104A02601046104A128810441860092093
:1022500008E00E4AF5E72078824206D10C48186063
:102260000C4800880860012030BD002030BD00000F
:10227000A0000020D22E000898000020CD2E0008DB
:10228000830000200A300008882F00089E2F0008D5
:10229000642F0008862F000870B51C481B4D00787D
:1022A000A5F1080510F01F040AD01848A5F118017F
:1022B000174B4A780079012C06D0022C24D109E072
:1022C00012481A3828601DE0F2B1897888421BD282
:1022D000002015E000F08F04200605D504F00F065D
:1022E0004FF48030B04001E00120A0400AB922073D
:1022F0000AD18A68024207D0C9680142E8D00120A9
:1023000018802B60012070BD002070BDA00000204F
:102310001801002070B5294A0146A2F12004107866
:1023200010F01F031046408804D0012B28D0022B48
:1023300026D110E0012823D129B100F045FAE08828
:1023400040F0020005E0002000F03EFAE08820F0B6
:102350000200E08030E0127902F08F06320605D5E7
:1023600006F00F024FF48035954001E00125B5409D
:1023700062782AB1320703D0A2682A4200D008B19D
:10238000002070BD0D482038C06800EA050031B15A
:1023900090B9304600F0E6F9E06828430BE058B108
:1023A0002069284208D13046FFF712F93046FFF77E
:1023B00097FEE068A843E060012070BDA000002007
:1023C0002DE9F84F5C4F00200090387810F01F0F77
:1023D0006FD1B8784FF000094FF0010B4FF4803AFD
:1023E000A7F1200600287AD0544801783046C078FA
:1023F00009B901285DD008B1514C6BE0514C69E03E
:102400006078022804D0042844D0052860D144E034
:102410006179B87881423BD170702079B07000202A
:10242000494A4A4903E000BF02F80090401C0B886B
:102430009842F9D30125B0460BFA05F0D8F80810F8
:10244000084202D02846FFF78AF9D8F808100AFA9D
:1024500005F0084203D045F08000FFF780F96D1CBD
:10246000102DE9D34FF00110C8E902090120C8F886
:102470001090FFF71DF9E0794006B8F8060002D584
:1024800040F0010001E020F00100A8F806001FE084
:1024900060881EE0E07800901AE00098C0B9A0784B
:1024A00000F08F05280605D505F00F010AFA01F0A6
:1024B00002E03CE00BFA05F0B16801432046B16050
:1024C000FFF792F82846FFF751F9284600F030F957
:1024D000207804442078002892D124E0FFE7C84601
:1024E00086F8019001245D464FEA0A09B16805FAB1
:1024F00004F0084202D02046FFF731F9B16809FA2A
:1025000004F0084203D044F08000FFF728F9641C6F
:10251000102CEBD34FF00110C6E902080020C6F8DA
:102520001080FFF7C5F8B8787178884202D0002093
:10253000BDE8F88F0120FBE7A0000020CD2E0008A9
:102540000A3000089E2F00082C000020CE2E000824
:102550002DE9FC5F444E00273D463078BB4600F035
:102560001F00B84601287DD1A6F120014878002837
:1025700075D03E48BA4602780846C0780AB90128A4
:1025800070D0894608B13A4C65E03A4C63E0607817
:10259000022804D0042809D005285AD117E061790F
:1025A00099F80100814254D0608853E0A7783079CF
:1025B000E5784FF00008B8424BD1B078A84248D136
:1025C0002D484FF0010A10F807B0C55541E03079A9
:1025D000B8423ED1A07800F08F000190000605D5EA
:1025E000019800F00F014FF4803001E001990120C3
:1025F00088400090B078A84217D1D9F80810009A06
:1026000020461143C9F80810D9F80C109143C9F8B5
:102610000C10FEF7E9FF0198FFF7A8F8019800F009
:1026200087F8009948EA010813E05D4511D1009947
:1026300018EA010F0DD1D9F80810009A9143C9F892
:102640000810D9F80C109143C9F80C100198FFF745
:1026500086F8207804442078002898D15046BDE8B8
:10266000FC9FFFE70020FAE7A0000020CD2E000825
:102670000A3000089E2F00082C0000200020274967
:1026800008602748006808B1481400E0002040F4C2
:102690001C402349096811B14FF4804100E000213A
:1026A00008432049096811B14FF4007100E000218E
:1026B00008431C49096811B14FF4807100E0002102
:1026C00008431649091F0860402017490880002068
:1026D00012490C31086014480088144909680860E0
:1026E00011480088403010490880084600880F498A
:1026F000096888600C48008840300B49088048F21F
:10270000FF700A490968C8604FF4485003494439CA
:10271000086080200149083108607047445C00402F
:10272000102F00080C2F00083C000020380000206B
:1027300010B504462046FDF75DFD10BDFEF7ECBE6A
:1027400010B5FFF797FBBDE81040FEF7E9BE0000AB
:1027500001B1704740F08002014B1A6000BFF8E7FA
:102760004C5C004010B5044641F210012046FDF7D4
:1027700061FD10BD01490020FFF782BCA0000020D0
:1027800000221146802000F021B8000001490020FD
:10279000FFF776BC180100200548006840F00800EB
:1027A000034908600846006840F00400086070476C
:1027B000405C00400348006820F0080001490860C0
:1027C00070470000405C0040704700002DE9F04772
:1027D00007460D46144607F00F061648006800EB42
:1027E000061000681449022202FB001A4FF000088C
:1027F00005E028884AF8040BAD1C08F10108601CAC
:10280000B8EB500FF5D30B48006800EB061044609E
:102810000A4901EB8600D0F8000C1FFA80F909F094
:102820003000102803D030213846FDF703FD204644
:10283000BDE8F087380000200060004000500040F4
:1028400070B55048056805F4806068B1FFF716FF61
:1028500000F010FB4C48006810B14B4800688047FE
:102860006FF480604749086005F4006058B1FFF7D5
:1028700093FF4648006810B14448006880476FF4F1
:1028800000604049086005F4805058B1FFF792FF9E
:102890003F48006810B13E48006880476FF48050A0
:1028A0003849086005F4007048B13A48006810B132
:1028B0003848006880476FF400703249086005F4BA
:1028C000804050B13448006818B10220324909688C
:1028D00088476FF480402B49086005F4005050B1E0
:1028E0002D48006818B101202B49096888476FF40A
:1028F0000050244908603CE06FF400402149086022
:1029000005F00F04254901EB8400D0F8006C06F4B3
:102910000040C0B126F4004048F68F7108401F4ABD
:1029200002EB8401C1F8000C1D4850F8240050B19E
:1029300006F400620AB1022200E004221046184A9E
:1029400052F82410884706F0800090B126F08000ED
:1029500048F68F710840114A02EB8401C1F8000C5F
:102960000F4850F8240020B10D4850F824100820DA
:10297000884704480068054600F400400028BBD1A1
:1029800070BD0000445C0040FC2E0008002F0008D1
:10299000042F00080C2F0008102F000800500040E2
:1029A000142F000802E008C8121F08C1002AFAD13B
:1029B00070477047002001E001C1121F002AFBD1BF
:1029C00070470000FDF7D2FBFEF7C6F8FDF7D6FE14
:1029D0005648006838B155485549086008460068AF
:1029E000016854488847FDF7C1FE0A20FDF7E8FB5F
:1029F00000F030FA012000F0BBF800204E490860DA
:102A00001AE04D4801680068401C4B4A106011B93B
:102A1000FDF7B4FE0DE048480068052802D1FDF737
:102A2000A5FE06E044480068322802D10020424951
:102A300008600A20FDF7C4FB00F092F80028E0D0FF
:102A4000FDF794FE6420FDF7BBFB00203A490860C7
:102A50003A483B4908604FF0FF303A4908603A492C
:102A6000086061E03248006880B933480168006856
:102A7000401C314A10603548814204D10020114683
:102A80000860FDF78FFE00F035F91BE000F032F929
:102A9000A8B92B480068B0F57A7F02D1FDF76EFE29
:102AA00007E02748006820B9FDF760FE2348244965
:102AB000086023480068401E2149086002E01F4862
:102AC0001F490860FDF794FE1E480068401C18B9B5
:102AD000FEF704FC1B4908601A480068401C58B106
:102AE00018490878FEF7EEF816490968884203D1BC
:102AF0004FF0FF301349086013480068401C18B9B4
:102B0000FEF7B2F8104908600F480068401C58B141
:102B10000D490878FEF7CAFC0B490968884203D1C1
:102B20004FF0FF30084908609CE7000000400008B3
:102B300014000020982E000820000020400D030003
:102B400024000020180000201C00002040420F003C
:102B500010B500F0AFF8BDE81040FEF7EDBB000087
:102B600002484078002800D00120704780000020F3
:102B7000FEF7ACBD002070472DE9F04104460F463A
:102B800015461E46012C02D0032C38D136E026B162
:102B9000012E04D0022E2FD100E000BF2CE01948F6
:102BA000006819490968884202D118480078F8B1CC
:102BB0001748144A126800EB821140222846FDF79C
:102BC000B1FA10480068401C0E49086008460068C9
:102BD000402801D1002008600A4800680A490968B5
:102BE000884202D10020094908704020BDE8F081E8
:102BF00001200849087000BF00BF00E000BF00BF0F
:102C00000020F3E76800002064000020610000203D
:102C100084140020600000202DE9F04107461F4881
:102C200016460088824202DD0020BDE8F0811C4883
:102C300000780028F9D01B4C01224FF00008E26018
:102C400000E0B0B1626A12B1A269002AF9D1164D52
:102C50003246681C2F70FDF765FAE5611349A4F848
:102C60000480B0B26080097801290BD86D1CE56141
:102C70000AE0C4F80C80C4F81C80A4F80480A4F80E
:102C80000280D1E7401C60800020FEF7B9FF0848B1
:102C900000F807800120C4F80C80C6E7E02E000889
:102CA00081000020E800002058010020DE2E0008EE
:102CB00032000020002008490870084908600849CF
:102CC000086001200749087000200749087007497B
:102CD0000860074908607047540000205800002031
:102CE0005C000020600000206100002064000020E3
:102CF0006800002010B52548006825490968884209
:102D000003D12448007800283DD0234A234B1B6878
:102D100002EB8311224A1D4B1B6802EB8310FDF767
:102D20000BFC1A480068441C402C00D100241748B2
:102D30000460006816490968884202D100201549DC
:102D400008701848007860B10020164908701248D1
:102D5000124A126800EB821140220020FFF75CFF4C
:102D60000FE00E480068441C402C00D100240B48A2
:102D7000046000680C490968884202D101200B49AF
:102D80000870012010BD0020FCE700005C0000205E
:102D9000580000205400002084140020640000200B
:102DA00084040020600000206800002061000020F2
:102DB000704700002DE9F0410646884614461D463E
:102DC000069F022E02D0032E36D134E005B933E03F
:102DD0002078072807D11A48006818B118490968EF
:102DE0008868804728E01748007830B116480068A6
:102DF00016490968884200D11EE01549124A126836
:102E000001EB82102A462146FDF78CF90E48006836
:102E1000401C0D49086008460068402801D1002088
:102E200008600948006809490968884202D1012000
:102E30000449087000E000BF00BFBDE8F081000059
:102E40001400002054000020580000205C000020E6
:102E500084040020054910B50020C870FFF778FEF3
:102E6000FFF70DF9BDE81040FFF7F0B88000002033
:102E70007047000006484FF0011201780548C180F4
:102E8000002101704170C0E902210161704700001A
:102E9000CC2E0008800000208D070008D90700080C
:102EA000003002100001021007000048300003103B
:102EB00006000048370003103700004800020048B1
:102EC000FF870000FFFF000000E00000000003009B
:102ED0000340020303000100400040000400010120
:102EE00040004000010000010102020040004000DB
:102EF0004000100040004000000000003D27000896
:102F00000000000000000000000000004127000851
:102F1000000000007D170008DB120008BD12000849
:102F2000E91D000800000000000000000000000093
:102F30000000000000000000000000000000000091
:102F40000000000000000000000000000000000081
:102F500000000000C916000800000000000000008A
:102F6000000000000600FF0901A101150026FF0076
:102F7000750895400901810295400901910295016A
:102F80000901B102C0002100540012010002EF0249
:102F9000014051C201F000010102030100000902D9
:102FA0006B000301008032080B00020202010409D9
:102FB00004000001020200040524001001052401A0
:102FC00001010424020205240600010705810340D3
:102FD000000209040100020A000005070502024080
:102FE00000000705820240000009040200020300FD
:102FF000000609210001000122210007058303408A
:103000000001070503034000010000000000040365
:103010000904120358003800390033002000410031
:1030200052004D00140343004D005300490053006B
:103030002D004400410050001A03300030003000E1
:1030400031004100300030003000300030003000EE
:1030500030001C0343004D005300490053002D0075
:1030600044004100500020004300440043001C0382
:1030700043004D005300490053002D00440041001F
:10308000500020004400430049001C0343004D0051
:103090005300490053002D0044004100500020001F
:1030A00048004900440000040348000203180004DB
:1030B0000048000200480000F8300008000000202E
:1030C00018010000A4290008103200080028002080
:1030D00008000000A4290008103200081801002090
:1030E0006C230000B42900081832000808280020CA
:1030F00040000000B4290008006CDC020000000061
:103100000000000001020304060708090000000097
:1031100000000000000000000000000000000000AF
:10312000FFFFFFFF000000000000000000000000A3
:1031300000600040000000000000000000000000EF
:10314000000000000000000000000000000000007F
:10315000000000000000000000000000000000006F
:10316000000000000000000001020304010203044B
:10317000060708090204060800000000000000001D
:10318000000000000000000000000000000000003F
:10319000000000000000000000000000000000002F
:1031A000000000000000000000000000000000001F
:1031B000000000000000000000000000000000000F
:1031C00000000000000000000000000000000000FF
:1031D00000000000000000000000000000000000EF
:1031E00000000000000000000000000000000000DF
:1031F00000000000000000000000000000000000CF
:1032000000000000000000000000000000000000BE
:083210000000000000000000B6
:020000040800F2
:104000000D6F0008E5470008016F000870B506460F
:104010000D46307808B9012400E03478012C02D034
:10402000022C0CD105E0012009490870FCF76AFC5C
:1040300009E0022006490870FCF72CFC03E0002090
:104040002870012070BD00BF2C700120FAE700002D
:104050000828002018B502460B461078547840EA2C
:1040600004210C4800680C4CB0FBF4F0801C0324C5
:10407000B0FBF4F041430846009000BF00BF009C35
:10408000641E0094002CFAD100BF0020187001209B
:1040900018BD00000000002040420F0010B504468B
:1040A000002004490870FCF71BFC00202070012050
:1040B00010BD00000828002002460020052A1AD062
:1040C00008DC012A0FD0022A0ED0032A0DD0042AC0
:1040D00021D10BE0062A0FD0F02A0ED0FE2A16D0EE
:1040E000FF2A18D10DE016E015E014E00B4B1B6819
:1040F0000B6004200FE00EE00DE003230B700120A5
:1041000009E040230B7000234B70022003E04023A2
:104110000B70012000BF00BF70470000206F000837
:1041200070B504460D4613480078022804D000BF3D
:10413000FF202870012070BD21780E48C175C07D18
:104140000C49897D884200DBF2E7082000F0F0FF8F
:104150006078A17840EA0120E17840EA01402179C5
:1041600040EA0166304601F05BFF00202870012024
:10417000E1E7000008280020F0B502460E4612F8DC
:10418000013B114883750025002109E012F8014B1D
:104190000D4818304454083020F811502544491C6B
:1041A0009942F3D3002108E007481830405C2D1AEB
:1041B0000548303020F81150491C9942F4D30020B2
:1041C00030700120F0BD00000828002070B50646C0
:1041D0000C4611480078022804D000BFFF20207050
:1041E000012070BD31780C48C175C07D0A49897DB8
:1041F000884200DBF2E70E2000F09AFF01F0C2F9DE
:104200000546002020706570280AA070280CE07018
:10421000280E20710520E4E7082800202DE9F0474A
:1042200004460D46002005F8010B4FF0010814F874
:10423000019B12E014F8017B2A462146384601F022
:1042400095FA07F03F0606B94026F01DC60834442B
:1042500007F0800008B13544B044B9F10000A9F17D
:104260000109E7D14046BDE8F08700002DE9F04F95
:1042700087B006460C46002005900025A346A41CE6
:10428000D94908708146049016F8011BD748C175BA
:10429000C07DD649897D884200DB9BE116F8010B81
:1042A000069048E116F8017B07F0010008B10B20E9
:1042B00000E00A20824607F00200002879D0049826
:1042C000002846D0C948B0F80A80D14514D107F07B
:1042D000100088B900BFF8B201A901F09BFA0546A9
:1042E000022D24D1B8F10000A8F101081FD0BE486A
:1042F00000780028EFD01AE0B9F10A0F04D04FF08F
:104300000A09484600F014FF00BF01A90E2001F081
:1043100081FA0546022D08D1B8F10000A8F1010884
:1043200003D0B14800780028EFD000200490012D80
:1043300000D006E1019804F8010B0198000A04F886
:10434000010B0198000C04F8010B0198000E04F811
:10435000010B07F01000002860D03078717840EA37
:104360000120B17840EA0140F17840EA0160039011
:10437000361D9E4880890290D14503D0D1464846DB
:1043800000F0D6FE9948B0F80A8000BFF8B20021CC
:1043900001F040FA0546022D08D1B8F10000A8F15D
:1043A000010803D0904800780028EFD0012D01D0FB
:1043B000C7E056E000BF8D48B0F80A8000BFF8B2F1
:1043C00001A901F027FA0546022D08D1B8F1000035
:1043D000A8F1010803D0844800780028EFD0012D0F
:1043E00000D00EE081480069019908400399884295
:1043F00007D00298411E029118B17B48007800282E
:10440000D9D000BF794800690199084003998842D2
:1044100001D045F01005012D22D092E0049800282B
:104420001ED1D14503D0D146484600F081FE6F48E9
:10443000B0F80A8000BFF8B2002101F0EBF90546A0
:10444000022D08D1B8F10000A8F1010803D0664898
:1044500000780028EFD0012D00D072E001200490F8
:1044600062E0049878B3B9F10A0F04D04FF00A095A
:10447000484600F05DFE5D48B0F80A8000BF01A923
:104480000E2001F0C7F90546022D08D1B8F1000051
:10449000A8F1010803D0544800780028EFD0012D7E
:1044A00000D04EE0019804F8010B0198000A04F8CE
:1044B000010B0198000C04F8010B0198000E04F8A0
:1044C000010B002004903078717840EA0120B17827
:1044D00040EA0140F17840EA01600190361D07F0A2
:1044E000200020B141480199016101251CE0D1451E
:1044F00003D0D146484600F01BFE3C48B0F80A8085
:1045000000BFF8B201A901F085F90546022D08D1D6
:10451000B8F10000A8F1010803D033480078002862
:10452000EFD0012D00D00CE00598401C05902E48DE
:10453000007800B105E00698411E069100287FF43E
:10454000B1AE00BF012D44D1B9F10A0F04D04FF034
:104550000A09484600F0ECFD049830B32348B0F84F
:104560000A8000BF01A90E2001F054F90546022D72
:1045700008D1B8F10000A8F1010803D01A4800786A
:104580000028EFD0012D00D024E0019804F8010BA1
:104590000198000A04F8010B0198000C04F8010BC3
:1045A0000198000E04F8010B13E01048B0F80A80DF
:1045B00000BF00210E2001F02DF90546022D08D183
:1045C000B8F10000A8F1010803D0074800780028DE
:1045D000EFD000BF05988BF800008BF80150A4EBDA
:1045E0000B0007B0BDE8F08F042800200828002049
:1045F0002DE9FC5F04460D464FF0000B0026A9464E
:10460000ED1C00206349087014F8011B6248C17555
:10461000C07D6149897D884200DBAEE02078617809
:1046200040EA0128A41CB8F1000F00D1A5E014F85D
:10463000017B07F0010008B10B2000E00A20009088
:10464000009800F075FD07F0020000284FD0524896
:10465000B0F80AA000BFF8B2002101F0DBF806466E
:10466000022E08D1BAF10000AAF1010A03D049488C
:1046700000780028EFD0012E00D07EE031E0B8F1C4
:10468000000F06D100980A2802D00A2000F050FD41
:104690000E274148B0F80AA000BFF8B201A901F006
:1046A000B9F80646022E08D1BAF10000AAF1010AB3
:1046B00003D0384800780028EFD0012E00D05CE00D
:1046C000019805F8010B0198000A05F8010B019803
:1046D000000C05F8010B0198000E05F8010B0BF119
:1046E000010BB8F10000A8F10108C8D144E024E0B2
:1046F0002078617840EA0120A17840EA0140E17821
:1047000040EA01600190241D2348B0F80AA000BFD0
:10471000F8B201A901F07EF80646022E08D1BAF1DE
:104720000000AAF1010A03D01A4800780028EFD04F
:10473000012E00D021E00BF1010BB8F10000A8F12F
:104740000108D5D100980A2802D00A2000F0F0FC18
:104750001148B0F80AA000BF00210E2001F05AF85D
:104760000646022E08D1BAF10000AAF1010A03D0D0
:10477000084800780028EFD000BF89F800B04FEA61
:104780001B2089F8010089F80260A5EB0900BDE84B
:10479000FC9F0000042800200828002070B5044673
:1047A0000D46207810B1012810D107E0627802F0A0
:1047B00001000B4A1268116888470BE0627802F02A
:1047C0000100074A12685168884703E0FF202870FB
:1047D000012070BD00BF002028700120F9E7000013
:1047E0000028002070B506460D463078802807DB8B
:1047F00030789F2804DC2946304600F0C3F870BDAD
:10480000307805F8010B16F8010B172874D2DFE891
:1048100000F00C141A205A607BAF96252BAFAFAF77
:10482000AFAF30363C42484E54003078691CFFF739
:1048300043FC04462C70A01CE1E729463046FFF7F4
:10484000ADFF044699E029463046FFF7DFFB0446FA
:1048500093E02846FFF722FC04468EE029463046C6
:10486000FFF7F8FB044688E0284600F090F804467D
:1048700083E02946304600F06BFB04467DE0294684
:10488000304600F02BFB044677E02946304600F026
:104890000FFC044671E02946304600F09FF80446BC
:1048A0006BE029463046FFF7B9FC044665E029462F
:1048B0003046FFF761FC04465FE029463046FFF7CB
:1048C00085FC044659E02946304600F01BFC0446AE
:1048D00053E02B480078012802D002280DD105E0D2
:1048E0002946304600F08CF804460BE02946304655
:1048F000FFF7BCFC044605E03AE000202870687031
:10490000022400BF00BF38E01D480078012802D013
:1049100002280CD105E02946304600F023FA04466F
:104920000BE029463046FFF763FE044605E0002011
:1049300028706870A870032400BF00BF1DE01048F5
:104940000078012802D002280CD105E02946304623
:1049500000F024F8044609E029463046FFF7E0FB62
:10496000044603E0FF202870022048E700BF04E06F
:10497000FF2005F8010C012041E700BF601C3EE765
:10498000082800200246FF200870012070470146D9
:1049900000BF0020487008700220704738B50446F8
:1049A0000D460D480078012803D0FF202870012013
:1049B00038BD6078A17840EA0120E17840EA014002
:1049C000217940EA016000906946002001F062FD13
:1049D000002028700120EBE70828002010B50246CF
:1049E000137803F00300401C044C2075C3F38004CB
:1049F0000248447500200870012010BD08280020DE
:104A00002DE9F04F85B006460C46002003900025A6
:104A1000A146A41CD149087082460290761C16F863
:104A2000010B049047E116F8018B08F00200002802
:104A30007ED0BAF1000F3CD0C948478908F0110078
:104A4000012811D100BF6946404601F023FD05460B
:104A5000022D1CD1381EA7F101018FB217D0BF481B
:104A600000780028EFD012E000BF69460E2001F068
:104A700011FD0546022D08D1381EA7F101018FB2A4
:104A800003D0B64800780028EFD04FF0000A012D7F
:104A900000D017E1009804F8010B0098000A04F810
:104AA000010B0098000C04F8010B0098000E04F8AC
:104AB000010B08F0100000285AD03078717840EAD5
:104AC0000120B17840EA0140F17840EA016B361DDF
:104AD000A3488089019008F00100A8B1A048478947
:104AE00000BF0021404601F0D5FC0546022D08D14B
:104AF000381EA7F101018FB203D098480078002832
:104B0000EFD0012D00D0DDE000BF9548478900BF00
:104B10006946404601F0BEFC0546022D0AD1381E0A
:104B2000A7F101018FB205D08C480078002800E081
:104B300063E0EDD0012D00D00EE0894800690099B6
:104B40000840584508D00198411E89B2019118B11A
:104B5000824800780028D8D000BF814800690099B9
:104B60000840584501D045F01005012D42D0A9E07C
:104B70007B48478908F00100C8B1BAF1000F39D16C
:104B800000BF0021404601F085FC0546022D08D1FA
:104B9000381EA7F101018FB203D0704800780028B9
:104BA000EFD0012D00D08DE04FF0010A22E000BFD0
:104BB0006946404601F06EFC0546022D08D1381EBC
:104BC000A7F101018FB203D0644800780028EFD02C
:104BD000012D00D076E0009804F8010B0098000A3F
:104BE00004F8010B0098000C04F8010B0098000E6B
:104BF00004F8010B0020029055E0BAF1000F26D016
:104C00005748478900BF69460E2001F043FC05461E
:104C1000022D08D1381EA7F101018FB203D04F48F1
:104C200000780028EFD0012D00D04BE0009804F868
:104C3000010B0098000A04F8010B0098000C04F81E
:104C4000010B0098000E04F8010B4FF0000A3078B9
:104C5000717840EA0120B17840EA0140F17840EAF9
:104C600001600090361D08F0200020B13C480099FA
:104C70000161012517E03A48478900BF694640466F
:104C800001F008FC0546022D08D1381EA7F10101EC
:104C90008FB203D0314800780028EFD0012D00D02A
:104CA00010E0012002900398401CC0B203902B48F2
:104CB000007800B106E00498411EC9B204910028B2
:104CC0007FF4B1AE00BF012D3DD1BAF1000F25D068
:104CD0002348478900BF69460E2001F0DBFB0546EB
:104CE000022D08D1381EA7F101018FB203D01B4855
:104CF00000780028EFD0012D00D025E0009804F8BE
:104D0000010B0098000A04F8010B0098000C04F84D
:104D1000010B0098000E04F8010B14E0029890B10A
:104D20000F48478900BF00210E2001F0B3FB054664
:104D3000022D08D1381EA7F101018FB203D0074818
:104D400000780028EFD000BF039889F8000089F8A8
:104D50000150A4EB090005B0BDE8F08F0428002045
:104D6000082800202DE9F84F04460D464FF0000BAF
:104D70000026A846ED1C002056490870641C2078C7
:104D8000617840EA012AA41CBAF1000F00D195E035
:104D900014F8017B07F0020000284FD007F0010053
:104DA000B0B14D48B0F80A9000BFF8B2002101F050
:104DB00071FB0646022E08D1B9F10000A9F10109E4
:104DC00003D0444800780028EFD0012E00D075E0D1
:104DD0002EE0BAF1000F03D107F0010000B10E2759
:104DE0003D48B0F80A9000BFF8B2694601F052FBA6
:104DF0000646022E08D1B9F10000A9F1010903D03D
:104E0000344800780028EFD0012E00D056E00098FA
:104E100005F8010B0098000A05F8010B0098000C3A
:104E200005F8010B0098000E05F8010B0BF1010BC2
:104E3000BAF10000AAF1010ACBD13EE024E02078CB
:104E4000617840EA0120A17840EA0140E17840EA37
:104E500001600090241D2048B0F80A9000BFF8B20D
:104E6000694601F017FB0646022E08D1B9F1000091
:104E7000A9F1010903D0174800780028EFD0012ECE
:104E800000D01BE00BF1010BBAF10000AAF1010AFE
:104E9000D5D11148B0F80A9000BF00210E2001F0D2
:104EA000F9FA0646022E08D1B9F10000A9F101096C
:104EB00003D0084800780028EFD000BF88F800B081
:104EC0004FEA1B2088F8010088F80260A5EB080073
:104ED000BDE8F88F042800200828002030B50246DD
:104EE0000C461078557840EA0520957840EA054050
:104EF000D57840EA05631BB9FF202070012030BD42
:104F000011480068B3EB900F04D301200F4D687077
:104F1000686014E000200D4D6870581E0A4D2D6821
:104F200000EB5500B0FBF3F1022905D9891E881C5E
:104F30000325B0FBF5F100E00121044841600020A9
:104F400020700120DBE7000000000020082800207E
:104F50002DE9F0470646884634787578B078F178C0
:104F600040EA0120317940EA0140717940EA016765
:104F700005F0010038B104F0010010B101F000FAB1
:104F800001E001F0EFF905F0020038B104F0020091
:104F900010B101F047FA01E001F036FA05F0040023
:104FA00010B1A01001F050FA05F0200010B160110E
:104FB00000BF00BF05F0800010B1E011FBF750FC0E
:104FC000002F52D03748874200D9074600BF002043
:104FD0004FF0E02188613448006878433349B0FBE2
:104FE000F1F04FF0E02148610520086100BF00BFEB
:104FF00005F0010020B101F0BBF9604000B124E0F0
:1050000005F0020028B101F005FA80EA640000B161
:105010001BE005F0040028B101F00AFA80EAA400C0
:1050200000B112E005F0200028B100BF002080EAA6
:10503000641000B109E005F0800028B101F01EFA0B
:1050400080EAE41000B100E007E000BF4FF0E0208C
:105050000069C0F300400028CAD000BF00BF002094
:105060004FF0E021086100BF00BF01F081F98146E7
:1050700001F0D0F949EA400901F0DAF949EA80097A
:1050800001F0F0F949EAC000002140EA411901F0BD
:10509000F5F949EAC010C4B288F800400120BDE823
:1050A000F0870000C0C62D000000002040420F0025
:1050B00070B504460D4614F8016B0EB94FF48076B6
:1050C0002146304601F0E8FE00202870012070BD26
:1050D00010B50948006840080849B0FBF1F0801E8F
:1050E0000749486064210648418101200449087548
:1050F000FBF7F6FB10BD00000000002040420F004F
:105100000828002002461078084B187250789378CF
:1051100040EA032305484381D078137940EA03230A
:105120000248838100200870012070470828002071
:1051300010B504460548407818B1204600F008F83C
:1051400002E0204600F0A6F810BD0000082800206C
:1051500070B5054601F066F901F004F900BF00BF23
:1051600001F00EF900BF00BF01F0FCF800BF00BF66
:1051700001F006F900BF00BF01F046F901F0F2F8B6
:1051800000BF00BF01F0FCF800BF00BF01F0EAF86B
:1051900000BF00BF01F0F4F800BF00BF012001F024
:1051A00053F93B48C17D203030F8114008E001F050
:1051B000D9F800BF00BF01F0E3F800BF00BF641ED4
:1051C000002CF4D13248C17D1830405C441E0CE004
:1051D000E8B201F039F901F0C5F800BF00BF01F0F5
:1051E000CFF800BF00BF6D08641E002CF0D1284826
:1051F000C17D303030F811402CB3E8B201F024F911
:1052000001F0B0F800BF00BF01F0BAF800BF00BF66
:10521000012001F019F9641E08E001F0A3F800BFB5
:1052200000BF01F0ADF800BF00BF641E002CF4D138
:1052300001F0F8F801F096F800BF00BF01F0A0F807
:1052400000BF00BF0DE001F0EDF8E8B201F0FCF89E
:1052500001F088F800BF00BF01F092F800BF00BF66
:1052600000BF01F07FF800BF00BF01F089F800BF68
:1052700000BF01F0C9F801F075F800BF00BF01F0F0
:105280007FF800BF00BF012001F0DEF870BD000014
:105290000828002038B5054601F0C4F801F062F88E
:1052A000B7494868009000BF00BF0099491E0091AF
:1052B0000029FAD100BF01F063F8B14948680090B5
:1052C00000BF00BF0099491E00910029FAD100BF1C
:1052D00001F048F8AA494868009000BF00BF009953
:1052E000491E00910029FAD100BF01F049F8A449F4
:1052F0004868009000BF00BF0099491E0091002936
:10530000FAD100BF01F080F801F02CF89C49486800
:10531000009000BF00BF0099491E00910029FAD1FA
:1053200000BF01F02DF896494868009000BF00BF0B
:105330000099491E00910029FAD100BF01F012F82E
:105340008F494868009000BF00BF0099491E009136
:105350000029FAD100BF01F013F88949486800908C
:1053600000BF00BF0099491E00910029FAD100BF7B
:10537000012001F069F88248C17D203030F81140E9
:105380001AE000F0EFFF7E494868009000BF00BFC0
:105390000099491E00910029FAD100BF00F0F0FFEA
:1053A00077494868009000BF00BF0099491E0091EE
:1053B0000029FAD100BF641E002CE2D17048C17DE3
:1053C0001830405C441E1EE0E8B201F03DF800F0E9
:1053D000C9FF6B494868009000BF00BF0099491E93
:1053E00000910029FAD100BF00F0CAFF6449486863
:1053F000009000BF00BF0099491E00910029FAD11A
:1054000000BF6D08641E002CDED15D48C17D3030C8
:1054100030F81140002C5AD0E8B201F015F800F035
:10542000A1FF57494868009000BF00BF0099491E7E
:1054300000910029FAD100BF00F0A2FF504948684E
:10544000009000BF00BF0099491E00910029FAD1C9
:1054500000BF012000F0F8FF641E1AE000F082FF98
:1054600047494868009000BF00BF0099491E00915D
:105470000029FAD100BF00F083FF4149486800903D
:1054800000BF00BF0099491E00910029FAD100BF5A
:10549000641E002CE2D100F0C5FF00F063FF384924
:1054A0004868009000BF00BF0099491E0091002984
:1054B000FAD100BF00F064FF31494868009000BF96
:1054C00000BF0099491E00910029FAD11EE000F0AA
:1054D000A9FFE8B200F0B8FF00F044FF284948688F
:1054E000009000BF00BF0099491E00910029FAD129
:1054F00000BF00F045FF22494868009000BF00BF90
:105500000099491E00910029FAD100BF00F02AFF3E
:105510001B494868009000BF00BF0099491E0091D8
:105520000029FAD100BF00F02BFF15494868009010
:1055300000BF00BF0099491E00910029FAD100BFA9
:1055400000F062FF00F00EFF0D494868009000BFB8
:1055500000BF0099491E00910029FAD100BF00F058
:105560000FFF07494868009000BF00BF0099491E1F
:1055700000910029FAD100BF012000F065FF38BD7D
:1055800008280020F8B500F04DFF00F0EBFE76494A
:105590004868009000BF00BF0099491E0091002993
:1055A000FAD100BF00F0ECFE6F494868009000BFE0
:1055B00000BF0099491E00910029FAD100BF00F0F8
:1055C00023FF00F0CFFE68494868009000BF00BF8D
:1055D0000099491E00910029FAD100BF00F0D0FEC9
:1055E00061494868009000BF00BF0099491E0091C2
:1055F0000029FAD100BF00F0B5FE5B494868009071
:1056000000BF00BF0099491E00910029FAD100BFD8
:1056100000F0B6FE54494868009000BF00BF0099F2
:10562000491E00910029FAD100BF4F48C57D1AE0FC
:1056300000F098FE4C494868009000BF00BF0099F8
:10564000491E00910029FAD100BF00F099FE464999
:105650004868009000BF00BF0099491E00910029D2
:10566000FAD100BF6D1E002DE2D100241F2520E0DD
:1056700000F078FE3C494868009000BF00BF0099E8
:10568000491E00910029FAD100BF00F0EBFE06464A
:1056900000F076FE34494868009000BF00BF0099D2
:1056A000491E00910029FAD100BF44EAC67464087B
:1056B0006D1E002DDCD100F0B5FE00F053FE2A492E
:1056C0004868009000BF00BF0099491E0091002962
:1056D000FAD100BF00F0C6FE064600F051FE224996
:1056E0004868009000BF00BF0099491E0091002942
:1056F000FAD100BF44EAC67400F034FE1A49486883
:10570000009000BF00BF0099491E00910029FAD106
:1057100000BF00F035FE14494868009000BF00BF8C
:105720000099491E00910029FAD100BF00F06CFEDB
:1057300000F018FE0C494868009000BF00BF0099B7
:10574000491E00910029FAD100BF00F019FE064958
:105750004868009000BF00BF0099491E00910029D1
:10576000FAD100BF2046F8BD082800202DE9F84FE7
:1057700004460F46904604F03F0606B9402604F062
:10578000400010B100F04EFE01E000F03DFE3AE0B6
:1057900017F801AB00254FF0080928E00AF0FF00D8
:1057A00000F052FE00F0DEFD19494868009000BF8D
:1057B00000BF0099491E00910029FAD100BF00F0F6
:1057C00051FE834600F0DCFD11494868009000BF9F
:1057D00000BF0099491E00910029FAD100BF4FEA8D
:1057E0005A0A6D0845EACB15A9F10109761EB9F1EF
:1057F000000F01D0002ED1D125FA09F504F0800068
:1058000008B108F8015B002EC2D1BDE8F88F000096
:105810000828002070B504460D460648407820B19F
:105820002946204600F008F870BD2946204600F0C1
:105830003FF9F9E7082800202DE9F0470646884699
:1058400000F0F0FD00F08EFD00BF00BF00F098FDFD
:1058500000BF00BF00F0D8FD00F084FD00BF00BF16
:1058600000F08EFD00BF00BF00F07CFD00BF00BF58
:1058700000F086FD00BF00BF8C48C47D08E000F04A
:1058800071FD00BF00BF00F07BFD00BF00BF641EC4
:10589000002CF4D1C6F3470000F0D6FD00F062FD05
:1058A00000BF00BF00F0DEFD074600F069FD00BF4D
:1058B00000BF4FEA4709C6F3870000F0C5FD00F0BE
:1058C00051FD00BF00BF00F0CDFD074600F058FDC0
:1058D00000BF00BF49EA0709C6F3C70000F0B4FDE6
:1058E00000F040FD00BF00BF00F0BCFD074600F027
:1058F00047FD00BF00BF49EA8709B9F1010F0AD08F
:1059000000F090FD00F02EFD00BF00BF00F038FD5C
:1059100000BF00BFA1E006F00200002852D0002521
:105920001F240EE000F01EFD00BF00BF00F09AFD36
:10593000074600F025FD00BF00BF45EAC7756D08AA
:10594000641E002CEED15948817DC07D081A441E8A
:1059500014B300F007FD00BF00BF00F083FD074651
:1059600000F00EFD00BF00BF641E08E000F0FAFC6E
:1059700000BF00BF00F004FD00BF00BF641E002C8C
:10598000F4D100F04FFD00F0EDFC00BF00BF00F0CF
:10599000F7FC00BF00BF0DE000F044FD00F0E2FCAA
:1059A00000BF00BF00F05EFD074600F0E9FC00BF4D
:1059B00000BF00BF45EAC775B8F1000F4CD0C8F86A
:1059C000005049E0D8F800501F240CE0E8B200F085
:1059D0003BFD00F0C7FC00BF00BF00F0D1FC00BFE2
:1059E00000BF6D08641E002CF0D13048817DC07D61
:1059F000081A441E14B3E8B200F026FD00F0B2FC11
:105A000000BF00BF00F0BCFC00BF00BF641E08E088
:105A100000F0A8FC00BF00BF00F0B2FC00BF00BF58
:105A2000641E002CF4D100F0FDFC00F09BFC00BFD4
:105A300000BF00F0A5FC00BF00BF0DE000F0F2FCCD
:105A4000E8B200F001FD00F08DFC00BF00BF00F0E7
:105A500097FC00BF00BF00BF00BF00F083FC00BF89
:105A600000BF00F08DFC00BF00BF00F0CDFC00F0D7
:105A700079FC00BF00BF00F083FC00BF00BF012025
:105A800000F0E2FC0948047A08E000F06BFC00BF7B
:105A900000BF00F075FC00BF00BF00BF201EA4F1D6
:105AA0000104F2D109F0FF00BDE8F08708280020CA
:105AB0002DE9F8430746894600F0B4FC00F052FC9B
:105AC000F9494868009000BF00BF0099491E009145
:105AD0000029FAD100BF00F053FCF3494868009058
:105AE00000BF00BF0099491E00910029FAD100BFF4
:105AF00000F08AFC00F036FCEB494868009000BFDB
:105B000000BF0099491E00910029FAD100BF00F0A2
:105B100037FCE5494868009000BF00BF0099491E66
:105B200000910029FAD100BF00F01CFCDE49486852
:105B3000009000BF00BF0099491E00910029FAD1D2
:105B400000BF00F01DFCD8494868009000BF00BFAE
:105B50000099491E00910029FAD100BFD248C47DA6
:105B60001AE000F0FFFBD0494868009000BF00BF7A
:105B70000099491E00910029FAD100BF00F000FCF5
:105B8000C9494868009000BF00BF0099491E0091B4
:105B90000029FAD100BF641E002CE2D1C7F34700F0
:105BA00000F052FC00F0DEFBBF494868009000BFE7
:105BB00000BF0099491E00910029FAD100BF00F0F2
:105BC00051FC064600F0DCFBB7494868009000BF76
:105BD00000BF0099491E00910029FAD100BF4FEA89
:105BE0004608C7F3870000F02FFC00F0BBFBAE496E
:105BF0004868009000BF00BF0099491E009100292D
:105C0000FAD100BF00F02EFC064600F0B9FBA64911
:105C10004868009000BF00BF0099491E009100290C
:105C2000FAD100BF48EA0608C7F3C70000F00CFC31
:105C300000F098FB9C494868009000BF00BF0099A5
:105C4000491E00910029FAD100BF00F00BFC064666
:105C500000F096FB94494868009000BF00BF00998F
:105C6000491E00910029FAD100BF48EA8608B8F120
:105C7000010F1CD000F0D6FB00F074FB8A49486885
:105C8000009000BF00BF0099491E00910029FAD181
:105C900000BF00F075FB84494868009000BF00BF5A
:105CA0000099491E00910029FAD100BF57E107F081
:105CB000020000287ED000251F2420E000F052FBC7
:105CC00079494868009000BF00BF0099491E0091C3
:105CD0000029FAD100BF00F0C5FB064600F050FBDA
:105CE00071494868009000BF00BF0099491E0091AB
:105CF0000029FAD100BF45EAC6756D08641E002C64
:105D0000DCD16948817DC07D081A441E002C59D021
:105D100000F028FB64494868009000BF00BF00996C
:105D2000491E00910029FAD100BF00F09BFB0646F6
:105D300000F026FB5C494868009000BF00BF009956
:105D4000491E00910029FAD100BF641E1AE000F03C
:105D500009FB55494868009000BF00BF0099491EE3
:105D600000910029FAD100BF00F00AFB4E494868B3
:105D7000009000BF00BF0099491E00910029FAD190
:105D800000BF641E002CE2D100F04CFB00F0EAFAE8
:105D900045494868009000BF00BF0099491E009126
:105DA0000029FAD100BF00F0EBFA3F4948680090A3
:105DB00000BF00E02DE000BF0099491E00910029BE
:105DC000FAD11EE000F02EFB00F0CCFA364948680C
:105DD000009000BF00BF0099491E00910029FAD130
:105DE00000BF00F03FFB064600F0CAFA2E494868A3
:105DF000009000BF00BF0099491E00910029FAD110
:105E000000BF45EAC675B9F1000F01D0C9F80050CE
:105E1000A4E0D9F800501F241EE0E8B200F014FB03
:105E200000F0A0FA20494868009000BF00BF009928
:105E3000491E00910029FAD100BF00F0A1FA1A49C9
:105E40004868009000BF00BF0099491E00910029DA
:105E5000FAD100BF6D08641E002CDED11248817D8E
:105E6000C07D081A441E002C59D0E8B200F0ECFAAC
:105E700000F078FA0C494868009000BF00BF009914
:105E8000491E00910029FAD100BF00F079FA0649B5
:105E90004868009000BF00BF0099491E009100298A
:105EA000FAD100BF641E1CE00828002000F05AFA56
:105EB0005A494868009000BF00BF0099491E0091F0
:105EC0000029FAD100BF00F05BFA544948680090FD
:105ED00000BF00BF0099491E00910029FAD100BF00
:105EE000641E002CE2D100F09DFA00F03BFA4B4911
:105EF0004868009000BF00BF0099491E009100292A
:105F0000FAD100BF00F03CFA44494868009000BF55
:105F100000BF0099491E00910029FAD11EE000F04F
:105F200081FAE8B200F090FA00F01CFA3B494868A8
:105F3000009000BF00BF0099491E00910029FAD1CE
:105F400000BF00F01DFA35494868009000BF00BF4F
:105F50000099491E00910029FAD100BF00BF00F04E
:105F600001FA2E494868009000BF00BF0099491E01
:105F700000910029FAD100BF00F002FA27494868D1
:105F8000009000BF00BF0099491E00910029FAD17E
:105F900000BF00F039FA00F0E5F9204948680090A8
:105FA00000BF00BF0099491E00910029FAD100BF2F
:105FB00000F0E6F919494868009000BF00BF009959
:105FC000491E00910029FAD100BF012000F03CFADF
:105FD0001248047A19E000F0C5F9104948680090A9
:105FE00000BF00BF0099491E00910029FAD100BFEF
:105FF00000F0C6F909494868009000BF00BF009949
:10600000491E00910029FAD100BF201EA4F101040D
:10601000E1D108F0FF00BDE8F88300000828002067
:1060200038B5054600F0FEF900F09CF9CC49486807
:10603000009000BF00BF0099491E00910029FAD1CD
:1060400000BF00F09DF9C6494868009000BF00BF3E
:106050000099491E00910029FAD100BF00F0D4F93F
:1060600000F080F9BE494868009000BF00BF009969
:10607000491E00910029FAD100BF00F081F9B8490A
:106080004868009000BF00BF0099491E0091002998
:10609000FAD100BF00F066F9B1494868009000BF2E
:1060A00000BF0099491E00910029FAD100BF00F0FD
:1060B00067F9AB494868009000BF00BF0099491ECE
:1060C00000910029FAD100BFA548C47D1AE000F074
:1060D00049F9A3494868009000BF00BF0099491ED4
:1060E00000910029FAD100BF00F04AF99C494868A4
:1060F000009000BF00BF0099491E00910029FAD10D
:1061000000BF641E002CE2D1002000F09DF900F0D9
:1061100029F993494868009000BF00BF0099491EC3
:1061200000910029FAD100BF00F02AF98C49486893
:10613000009000BF00BF0099491E00910029FAD1CC
:1061400000BF00F00FF986494868009000BF00BF0B
:106150000099491E00910029FAD100BF00F010F902
:106160007F494868009000BF00BF0099491E009118
:106170000029FAD100BF00F0F5F87949486800908D
:1061800000BF00BF0099491E00910029FAD100BF4D
:1061900000F0F6F872494868009000BF00BF00990F
:1061A000491E00910029FAD100BF1F241EE0E8B269
:1061B00000F04AF900F0D6F869494868009000BF3D
:1061C00000BF0099491E00910029FAD100BF00F0DC
:1061D000D7F863494868009000BF00BF0099491E86
:1061E00000910029FAD100BF6D08641E002CDED199
:1061F0005B48817DC07D081A441E002C57D0E8B250
:1062000000F022F900F0AEF855494868009000BF50
:1062100000BF0099491E00910029FAD100BF00F08B
:10622000AFF84F494868009000BF00BF0099491E71
:1062300000910029FAD100BF641E1AE000F092F824
:1062400047494868009000BF00BF0099491E00916F
:106250000029FAD100BF00F093F841494868009046
:1062600000BF00BF0099491E00910029FAD100BF6C
:10627000641E002CE2D100F0D5F800F073F8384924
:106280004868009000BF00BF0099491E0091002996
:10629000FAD100BF00F074F831494868009000BF9F
:1062A00000BF0099491E00910029FAD11EE000F0BC
:1062B000B9F8E8B200F0C8F800F054F82849486886
:1062C000009000BF00BF0099491E00910029FAD13B
:1062D00000BF00F055F822494868009000BF00BF99
:1062E0000099491E00910029FAD100BF00F03AF848
:1062F0001B494868009000BF00BF0099491E0091EB
:106300000029FAD100BF00F03BF815494868009019
:1063100000BF00BF0099491E00910029FAD100BFBB
:1063200000F072F800F01EF80D494868009000BFB8
:1063300000BF0099491E00910029FAD100BF00F06A
:106340001FF807494868009000BF00BF0099491E28
:1063500000910029FAD100BF012000F075F838BD86
:1063600008280020202001490860704714080140D7
:1063700002480068C0F34010704700000C0801405C
:106380002020014908607047100801400448006857
:1063900000F0100008B1012070470020FCE7000069
:1063A0000808014000F0010119B11021034A1160F1
:1063B00003E01021014A121D1160704710080140CE
:1063C00000BF0748006820F4702040F40020044912
:1063D0000860102002491031086000BF70470000BB
:1063E0000008014000BF0748006820F4702040F416
:1063F000403004490860102002491431086000BF91
:1064000070470000000801401020014908607047F3
:106410001408014002480068C0F3001070470000F3
:106420000808014010200149086070471008014029
:106430000448006800F0070008B101207047002000
:10644000FCE700000C08014000F0010119B1072130
:10645000034A116003E00721014A121D11607047D1
:10646000100801400448006800F0060008B101204F
:1064700070470020FCE7000008080140044800685D
:1064800000F4007008B1012070470020FCE7000014
:10649000080C014070B504460D460648407820B10E
:1064A0002946204600F008F870BD2946204600F035
:1064B000ABF9F9E7082800202DE9F04706468A469F
:1064C0004FF000080120FFF76DFFFFF74BFF00BF03
:1064D00000BFFFF755FF00BF00BF35462846FFF756
:1064E00061FFFFF73FFF00BF00BFFFF749FF00BF9D
:1064F00000BF08EB050000F0FF0875102846FFF705
:1065000051FFFFF72FFF00BF00BFFFF739FF00BFAC
:1065100000BF08EB050000F0FF08B5102846FFF7A4
:1065200041FFFFF71FFF00BF00BFFFF729FF00BFBC
:1065300000BF08EB050000F0FF08F5102846FFF744
:1065400031FFFFF70FFF00BF00BFFFF719FF00BFCC
:1065500000BF08EB050000F0FF084046FFF722FFF0
:10656000FFF700FF00BF00BFFFF70AFF00BF00BF3B
:106570000020FFF717FFFFF7F5FE00BF00BFFFF792
:10658000FFFE00BF00BF0120FFF70CFFFFF7EAFE90
:1065900000BF00BFFFF7F4FE00BF00BFFFF710FF12
:1065A0009848047D09E0FFF7DDFE00BF00BFFFF75C
:1065B000E7FE00BF00BF601EC4B2002CF3D1FFF79E
:1065C000D1FE00BF00BFFFF7E1FE0546FFF7D8FE92
:1065D00000BF00BFA946FFF7C5FE00BF00BFFFF721
:1065E000D5FE0546FFF7CCFE00BF00BF49EA4500D7
:1065F00000F0FF09FFF7B6FE00BF00BFFFF7C6FEC1
:106600000546FFF7BDFE00BF00BF49EA850000F068
:10661000FF09B9F1010F7DD106F00200002842D038
:106620000027A046202413E0FFF79CFE00BF00BF18
:10663000FFF7ACFE0546FFF7A3FE00BF00BF08EB67
:10664000050000F0FF087F0847EAC577601EC4B266
:10665000002CE9D1FFF786FE00BF00BFFFF796FED2
:106660000546FFF78DFE00BF00BF88EA050000F079
:10667000010008B14FF00809BAF1000F01D0CAF8C3
:1066800000706048047D09E0FFF76CFE00BF00BFAA
:10669000FFF776FE00BF00BF601EC4B2002CF3D12E
:1066A000FFF7A0FE35E05748047D09E0FFF75AFEEA
:1066B00000BF00BFFFF764FE00BF00BF601EC4B292
:1066C000002CF3D1FFF78EFEDAF80070A0462024EC
:1066D00011E0F8B2FFF766FEFFF744FE00BF00BF0F
:1066E000FFF74EFE00BF00BF08EB070000F0FF08F9
:1066F0007F08601EC4B2002CEBD14046FFF752FE6B
:10670000FFF730FE00BF00BFFFF73AFE00BF00BF3B
:1067100000BF00E018E03B48047A7CB10020FFF79E
:1067200041FE09E0FFF71EFE00BF00BFFFF728FE95
:1067300000BF00BF601EC4B2002CF3D10120FFF7E0
:1067400031FE4846BDE8F087B9F1020F02D0B9F139
:10675000040F40D12B48407D80B106F0020068B1A3
:10676000212409E0FFF7FEFD00BF00BFFFF708FE90
:1067700000BF00BF601EC4B2002CF3D12148047DCD
:1067800009E0FFF7EFFD00BF00BFFFF7F9FD00BF15
:1067900000BF601EC4B2002CF3D1FFF723FE1948DE
:1067A000407D98B106F0020080B90020FFF7FAFDA5
:1067B000212409E0FFF7D6FD00BF00BFFFF7E0FD91
:1067C00000BF00BF601EC4B2002CF3D10120FFF750
:1067D000E9FD4846B6E70B48007D2130C4B209E028
:1067E000FFF7C0FD00BF00BFFFF7CAFD00BF00BF3D
:1067F000601EC4B2002CF3D10120FFF7D3FD484640
:10680000A0E70000082800202DE9F84F06468A4638
:106810004FF000080120FFF7C5FDFFF7A3FDFD497C
:106820004868009000BF00BF0099491E00910029F0
:10683000FAD100BFFFF7A4FDF6494868009000BFF9
:1068400000BF0099491E00910029FAD100BF3546CA
:106850002846FFF7A7FDFFF785FDEE494868009041
:1068600000BF00BF0099491E00910029FAD100BF66
:10687000FFF786FDE7494868009000BF00BF009918
:10688000491E00910029FAD100BF08EB050000F075
:10689000FF0875102846FFF785FDFFF763FDDD490A
:1068A0004868009000BF00BF0099491E0091002970
:1068B000FAD100BFFFF764FDD6494868009000BFD9
:1068C00000BF0099491E00910029FAD100BF08EBD2
:1068D000050000F0FF08B5102846FFF763FDFFF73D
:1068E00041FDCC494868009000BF00BF0099491E97
:1068F00000910029FAD100BFFFF742FDC549486861
:10690000009000BF00BF0099491E00910029FAD1F4
:1069100000BF08EB050000F0FF08F5102846FFF760
:1069200041FDFFF71FFDBB494868009000BF00BF55
:106930000099491E00910029FAD100BFFFF720FD00
:10694000B4494868009000BF00BF0099491E0091FB
:106950000029FAD100BF08EB050000F0FF0840460F
:10696000FFF720FDFFF7FEFCAA494868009000BF32
:1069700000BF0099491E00910029FAD100BFFFF71E
:10698000FFFCA4494868009000BF00BF0099491E61
:1069900000910029FAD100BF0020FFF703FDFFF7A7
:1069A000E1FC9C494868009000BF00BF0099491E67
:1069B00000910029FAD100BFFFF7E2FC9549486831
:1069C000009000BF00BF0099491E00910029FAD134
:1069D00000BF0120FFF7E6FCFFF7C4FC8D494868C3
:1069E000009000BF00BF0099491E00910029FAD114
:1069F00000BFFFF7C5FC87494868009000BF00BF93
:106A00000099491E00910029FAD100BFFFF7D8FC78
:106A10008048047D1BE0FFF7A5FC7E494868009094
:106A200000BF00BF0099491E00910029FAD100BFA4
:106A3000FFF7A6FC77494868009000BF00BF0099A7
:106A4000491E00910029FAD100BF601EC4B2002C7B
:106A5000E1D1FFF787FC6F494868009000BF00BF95
:106A60000099491E00910029FAD100BFFFF78EFC62
:106A70000546FFF785FC67494868009000BF00BFE6
:106A80000099491E00910029FAD100BFA946FFF7DD
:106A900069FC60494868009000BF00BF0099491E2A
:106AA00000910029FAD100BFFFF770FC0546FFF7FF
:106AB00067FC58494868009000BF00BF0099491E14
:106AC00000910029FAD100BF49EA450000F0FF0912
:106AD000FFF748FC4F494868009000BF00BF00998D
:106AE000491E00910029FAD100BFFFF74FFC05466F
:106AF000FFF746FC47494868009000BF00BF009977
:106B0000491E00910029FAD100BF49EA850000F032
:106B1000FF09B9F1010F7CD106F0020000287CD0FA
:106B200000278846202425E0FFF71CFC39494868E7
:106B3000009000BF00BF0099491E00910029FAD1C2
:106B400000BFFFF723FC0546FFF71AFC31494868F0
:106B5000009000BF00BF0099491E00910029FAD1A2
:106B600000BF08EB050000F0FF087F0847EAC57783
:106B7000601EC4B2002CD7D1FFF7F4FB254948684A
:106B8000009000BF00BF0099491E00910029FAD172
:106B900000BFFFF7FBFB0546FFF7F2FB1D49486806
:106BA000009000BF00BF0099491E00910029FAD152
:106BB00000BF88EA050000F0010008B14FF00809A5
:106BC000BAF1000F01D0CAF800701248047D1BE032
:106BD000FFF7C8FB0F494868009000BF00BF00994D
:106BE000491E00910029FAD100BFFFF7C9FB0949EE
:106BF0004868009000BF00BF0099491E009100291D
:106C0000FAD100BF601EC4B2002CE1D1FFF7EAFB4D
:106C10006EE098E008280020FFE79E48047D1BE016
:106C2000FFF7A0FB9B494868009000BF00BF009998
:106C3000491E00910029FAD100BFFFF7A1FB954939
:106C40004868009000BF00BF0099491E00910029CC
:106C5000FAD100BF601EC4B2002CE1D1FFF7C2FB25
:106C6000DAF80070A046202423E0F8B2FFF79AFB80
:106C7000FFF778FB87494868009000BF00BF009984
:106C8000491E00910029FAD100BFFFF779FB814925
:106C90004868009000BF00BF0099491E009100297C
:106CA000FAD100BF08EB070000F0FF087F08601E64
:106CB000C4B2002CD9D14046FFF774FBFFF752FB5A
:106CC00074494868009000BF00BF0099491E0091B8
:106CD0000029FAD100BFFFF753FB6E4948680090C6
:106CE00000BF00BF0099491E00910029FAD100BFE2
:106CF0006848047A0CB30020FFF754FB1BE0FFF751
:106D000031FB64494868009000BF00BF0099491EEC
:106D100000910029FAD100BFFFF732FB5D494868B6
:106D2000009000BF00BF0099491E00910029FAD1D0
:106D300000BF601EC4B2002CE1D10120FFF732FB7E
:106D40004846BDE8F88FB9F1020F02D0B9F1040F3F
:106D500077D15048407D10B306F00200F8B12124ED
:106D60001BE0FFF7FFFA4B494868009000BF00BFE7
:106D70000099491E00910029FAD100BFFFF700FBDE
:106D800044494868009000BF00BF0099491E009127
:106D90000029FAD100BF601EC4B2002CE1D13D48E9
:106DA000047D1BE0FFF7DEFA3A494868009000BF17
:106DB00000BF0099491E00910029FAD100BFFFF7DA
:106DC000DFFA34494868009000BF00BF0099491EAF
:106DD00000910029FAD100BF601EC4B2002CE1D19D
:106DE000FFF700FB2B48407D28B306F0020010BBE4
:106DF0000020FFF7D7FA21241BE0FFF7B3FA25495B
:106E00004868009000BF00BF0099491E009100290A
:106E1000FAD100BFFFF7B4FA1E494868009000BFDE
:106E200000BF0099491E00910029FAD100BF601EE1
:106E3000C4B2002CE1D10120FFF7B4FA484680E744
:106E4000FFE71448007D2130C4B21BE0FFF78AFA47
:106E500010494868009000BF00BF0099491E00918A
:106E60000029FAD100BFFFF78BFA0A494868009061
:106E700000BF00BF0099491E00910029FAD100BF50
:106E8000601EC4B2002CE1D10120FFF78BFA484606
:106E900057E7000008280020F8B504460D460027F3
:106EA00029E0641E17B915F8016B082706F00100E8
:106EB00010B1FFF7B7FA01E0FFF7A6FAFFF752FAB1
:106EC0000E494868009000BF00BF0099491E00911C
:106ED0000029FAD100BFFFF753FA0849486800902B
:106EE00000BF00BF0099491E00910029FAD100BFE0
:106EF0007610781EC7B2002CD3D1F8BD0828002028
:106F000001200149087070470428002010B504468C
:106F100002480460FEF7DCF810BD000000280020E5
:046F2000312E3000DE
:04000005080000ED02
:00000001FF
