:020000040800F2
:100000000050002001010008D1060008D1060008B8
:10001000D1060008D1060008D10600080000000043
:10002000000000000000000000000000D1060008F1
:10003000D106000800000000D106000819010008E0
:100040001B0100081B0100081B0100081B01000820
:100050001B0100081B0100081B0100081B01000810
:100060001B0100081B0100081B0100081B01000800
:100070001B0100081B0100081B0100081B010008F0
:100080001B0100081B0100081B0100081B010008E0
:10009000CD2700081B0100081B0100081B010008F8
:1000A0001B0100081B0100081B0100081B010008C0
:1000B0001B0100081B0100081B0100081B010008B0
:1000C0001B0100081B0100081B0100081B010008A0
:1000D0001B0100081B010008950D00081B0100080A
:1000E0001B0100081B0100081B010008DFF80CD0F1
:1000F00000F02AF80048004751290008005000206D
:100100000648804706480047FEE7FEE7FEE7FEE7B1
:10011000FEE7FEE7FEE7FEE7FEE7FEE7990B0008D5
:10012000ED00000840EA01039B0703D009E008C97D
:10013000121F08C0042AFAD203E011F8013B00F8AC
:10014000013B521EF9D27047064C074D06E0E068AD
:1001500040F0010394E8070098471034AC42F6D30E
:10016000FFF7C8FF343000087430000810B50C48A1
:10017000806940F01D000A4988610121094800F0AA
:1001800093F90949094800F004F90949094800F0C0
:1001900000F90949094800F0FCF800F0CFFA10BD59
:1001A00000100240000230003C2E00080008014010
:1001B000402E0008000C0140442E000800100140B1
:1001C00008B50B4909684FF47A72B1FBF2F1891C4A
:1001D0000622B1FBF2F148430146009100BF00BF87
:1001E000009A521E0092002AFAD100BF08BD0000FA
:1001F0000000002030B500F00F010D4C04EB81032E
:10020000D3F8002C00F0800343B148F6CF731340BD
:10021000254605EB8104C4F8003C07E04CF68F73DB
:100220001340034D05EB8104C4F8003C30BD0000D1
:100230000050004070B500F00F02104D05EB820435
:10024000D4F8003C00F080045CB101F030045C4064
:1002500048F6BF752C40094E06EB8205C5F8004CE8
:100260000AE001F440545C404BF68F752C40034E7D
:1002700006EB8205C5F8004C70BD00000050004040
:1002800030B5044604254FF4302000F06FF80546E1
:10029000042D17D10C48006940F002000A4908619A
:1002A00008464461006940F0400008614FF4302086
:1002B00000F05CF805460448006941F6FD7108400D
:1002C00001490861284630BD0020024004200B4946
:1002D000C96801F0010109B101200EE00749C968B0
:1002E00001F0040109B1022007E00449C96801F0E6
:1002F000100109B1032000E00420704700200240F3
:100300000348006940F0800001490861704700001F
:100310000020024070B504460D460426F00200F0AD
:1003200025F80646042E11D10948006940F0010065
:10033000074908612580F00200F018F806460448D5
:10034000006941F6FE71084001490861304670BD00
:100350000020024002480349486003484860704753
:100360002301674500200240AB89EFCD00B502466E
:100370000423FFF7ABFF034603E0FFF7A7FF0346A5
:10038000521E012B01D1002AF7D102B905231846CC
:1003900000BD2DE9F0410246002500260020002383
:1003A0000024002791F803C00CF00F0591F803C05A
:1003B0000CF0100CBCF1000F03D091F802C04CEA15
:1003C000050591F800C0BCF1000F31D01468002081
:1003D0002BE04FF0010C0CFA00F3B1F800C00CEA6E
:1003E00003069E4220D183004FF00F0C0CFA03F756
:1003F000BC4305FA03FC4CEA040491F803C0BCF1C9
:10040000280F06D14FF0010C0CFA00FCC2F814C002
:100410000AE091F803C0BCF1480F05D14FF0010C80
:100420000CFA00FCC2F810C0401C0828D1D314609C
:10043000B1F800C0BCF1FF0F34DD546800202EE09D
:1004400000F1080C4FF0010808FA0CF3B1F800C0F5
:100450000CEA03069E4221D183004FF00F0C0CFAE8
:1004600003F7BC4305FA03FC4CEA040491F803C00B
:10047000BCF1280F05D100F1080C08FA0CF8C2F8FD
:10048000148091F803C0BCF1480F07D100F1080CAB
:100490004FF0010808FA0CF8C2F81080401C082838
:1004A000CED35460BDE8F081F0B50A4600230024A5
:1004B0000021002500F00046B6F1004F02D11D4E8C
:1004C000F16901E01B4E7168C0F3034583B200F48B
:1004D0004016B6F5401F08D121F07061154E7668C0
:1004E00026F07066134F7E6012E000F48016B6F5B9
:1004F000801F06D1032606FA05F4A14341F070617E
:1005000006E0460D360103FA06F6B14341F070618C
:1005100022B1460D360103FA06F6314300F00046DB
:10052000B6F1004F02D1034EF16101E0014E71605E
:10053000F0BD0000000001402DE9F04704460D46E3
:100540004FF0FF0A2078D02872DB2078D7286FDCA4
:10055000207805F8010B14F8010BD038082868D270
:10056000DFE800F00412151821335672504807686E
:1005700005F8017B380A05F8010B380C05F8010B6A
:10058000380E05F8010B74E0FFF7E4FE71E0FFF7A9
:10059000B7FE6EE027683846FFF772FE042801D0E8
:1005A0004FF0FF0A65E0D4F80080A68806E018F84E
:1005B000011BFF2902D04FF0FF0A04E0301EA6F114
:1005C00001018EB2F3D100BF53E02768A688382E10
:1005D00002DD4FF0FF0A1AE0A41D12E014F8019B9F
:1005E0002EB114F8011B49EA0129701E86B2494652
:1005F0003846FFF78FFE042802D04FF0FF0A05E0CF
:10060000BF1C301EA6F101018EB2E7D100BF30E061
:10061000D4F80080A6883E2E02DD4FF0FF0A12E0DB
:10062000002005F8010B09E026B998F800A005E0C4
:1006300023E01AE018F8010B05F8010B301EA6F1B3
:1006400001018EB2F0D114E000BFBFF34F8F194803
:10065000006800F4E06018490843001D154908606F
:10066000BFF34F8F00BF00BFFEE76D1E4FF0FF0AC4
:1006700000BF00BF85F800A017E01048006890B1E7
:100680000F4BDFF840C0DCF800C003EB8C110E4BC1
:10069000DFF838C0DCF800C003EB8C10074B1B6898
:1006A0005A68904701E0FF202870BDE8F0870000FD
:1006B000002004E00CED00E00000FA05140000202A
:1006C0008414002064000020840400205C000020CA
:1006D00072B61749086880F3088800BF00F02EF84A
:1006E000002412E000F06EF8FA20FFF769FD00F038
:1006F00061F800F041F8FA20FFF762FD00F034F8ED
:100700004FF47A70FFF75CFD641C052CEADB00BF38
:10071000BFF34F8F0748006800F4E06006490843C4
:10072000001D04490860BFF34F8F00BF00BFFEE704
:10073000000000080CED00E00000FA0510B50748C5
:10074000806940F004000549886148150449086043
:10075000044903481438FFF71CFE10BD0010024086
:10076000140801402C2E00084FF400700149086065
:1007700070470000140801404FF400700149086000
:10078000704700001008014000B5024602F0010069
:1007900010B1FFF7F1FF01E0FFF7E6FF00BD000039
:1007A0000348006880F40070014908607047000049
:1007B0000C0801404FF400700149086070470000C8
:1007C000140801404FF400700149086070470000B0
:1007D0001008014000B5024602F0010010B1FFF719
:1007E000F1FF01E0FFF7E6FF00BD000070B5002457
:1007F00000F016FA054605F0040008B144F0400484
:1008000005F0020008B144F0400405F0010008B111
:1008100044F0100400F022FA054605F0080008B183
:1008200044F0080405F0040008B144F0020405F0A7
:10083000020008B144F0010400F0DEF908B144F010
:10084000040405480068604028B1A0B200F046FDED
:1008500008B10148046070BD2800002000F00101CB
:1008600041B100BF0849096821F00F01091D064A7E
:10087000116008E000BF0449096821F00F01C91D9B
:10088000014A116000BF7047000C014010B50449D7
:100890000448FFF77EFD04490248FFF77AFD10BDCA
:1008A000342E0008000C0140382E000810B54FF41B
:1008B000C0400B4908600120091D0860094908482B
:1008C0001038FFF766FD00BF05481038006820F0BB
:1008D0000F00001D02491039086000BF10BD000064
:1008E000100C0140302E00087047000029B1064A64
:1008F000D2690243044BDA6104E0034AD2698243BD
:10090000014BDA61704700000010024029B1064A2D
:1009100092690243044B9A6104E0034A926982435C
:10092000014B9A61704700000010024030B5002171
:100930000022002400232D4D6D6805F00C0121B12B
:10094000042905D0082923D105E0294D056022E0BE
:10095000274D05601FE0254D6D6805F47012234D8D
:100960006D6805F48034022505EB92421CB9214DD7
:10097000554305600BE01D4D6D6805F400351DB154
:100980001C4D5543056002E0194D5543056002E0DA
:10099000174D056000BF00BF144D6D6805F0F001F4
:1009A0000909154D6B5C0568DD4045600F4D6D68AC
:1009B00005F4E061090A104D6B5C4568DD40856017
:1009C0000A4D6D6805F46051C90A0B4D6B5C4568B2
:1009D000DD40C560054D6D6805F44041890B074D4C
:1009E0006B5CC568B5FBF3F5056130BD00100240D6
:1009F00000127A0000093D006C0000207C000020FD
:100A000010B500F001F810BD08B50020009037487F
:100A1000006840F480303549086000BF3348006802
:100A200000F4003018B90098B0F5A06FF6D12F4847
:100A3000006800F4003040B92C48006820F4803091
:100A40002A4908600120009001E000200090284819
:100A5000006840F01000264908600846006820F051
:100A6000030008600846006840F0020008601F4864
:100A700040681E494860084640684860084640682B
:100A800040F4806048600846406820F47C1048606C
:100A9000009828B10846406840F4D000486005E05E
:100AA0001248406840F4E810104948600F48006858
:100AB00040F080700D49086000BF0C48006800F0ED
:100AC00000700028F9D00948406820F00300074969
:100AD00048600846406840F00200486000BF034894
:100AE000406800F00C000828F9D108BD0010024051
:100AF0000020024010B5002100200022214B5B683D
:100B000003F00C0121B1042906D0082928D107E0FF
:100B10001D4B1E4C236027E01B4B1C4C236023E025
:100B2000184B5B6803F47010164B5B6803F480325B
:100B3000022303EB904022B9154B4343134C23602F
:100B40000DE0104B5B6803F4003323B1104B4343BB
:100B50000E4C236003E00C4B43430C4C236003E03A
:100B6000094B0A4C236000BF00BF064B5B68C3F310
:100B70000313084CE15C054B1B68CB40034C23601E
:100B800010BD00000010024000127A00000000209A
:100B900000093D000400002010B51348006840F033
:100BA00001001149086008464068104908400E4994
:100BB0004860084600680E4908400B49086008462E
:100BC000006820F4802008600846406820F4FE0099
:100BD00048604FF41F008860FFF712FF4FF000607D
:100BE0000449086010BD0000001002400000FFF83A
:100BF000FFFFF6FE08ED00E00148006870470000C6
:100C00004800002008B50121684600F037F80128A7
:100C100002D19DF8000008BD4FF0FF30FBE7000057
:100C200000200C49097801F0010109B140F00200EF
:100C30000849097801F0040109B140F004000649AF
:100C4000096831B90349097801F0020109B140F09E
:100C5000020070474000002048000020002070473C
:100C600001B50121684600F063F8012802D19DF822
:100C7000000008BD4FF0FF30FBE7000030B5024632
:100C800000201EE04B1E99B20F4BB3F904300E4CFE
:100C9000B4F90640A34214D00B4C63885C1C0A4D87
:100CA0006C8005F10804E45C02F8014B2B465B887C
:100CB000DBB22C4663802346DB885B1C1BB2E380DF
:100CC000401C0029DED130BD6C03002010B5262069
:100CD00000F01F0201219140114A430942F82310FC
:100CE00000BF00200F4908600F4908600F490871D4
:100CF00008208871002048714FF4E13008600846F0
:100D000000F048FB262000F01F020121914042091B
:100D1000920002F1E022C2F8001100BF012010BDD4
:100D200080E100E044000020480000204C0000204A
:100D30002DE9F04104460D4600261BE0681E85B2F1
:100D4000124880881149C988401A0FFA80F8B8F112
:100D5000FF0F0FDC0D48078814F8011B0830C15540
:100D6000781CC7B2094807808088401C00B2074938
:100D70008880761C002DE1D12EB1012240F227712E
:100D8000034800F0C0F83046BDE8F081640200205E
:100D90000044004070B5344800883449086040F28F
:100DA0002551314800F085F850B3314880883049EA
:100DB000C988401A05B2FF2D22DC2B4800F034F917
:100DC000C4B22B490888411C294A118002F108014C
:100DD0000C5444B90221244800F05EF818B10120F7
:100DE0002449086002E00020224908602048008869
:100DF000C0B21F49088008468088401C00B2888025
:100E000040F22771184800F054F820B31A480068DF
:100E1000012803D1144800F00CF923E01748B0F979
:100E200004001649B1F90610884215D013484688C7
:100E3000701C124A508002F10800815D0A4800F0DF
:100E4000FDF80E484088C0B20C4948800846C0886A
:100E5000401C00B2C88005E0002240F22771024821
:100E600000F051F870BD0000004400404000002038
:100E70006C03002048000020440000206402002091
:100E800021B1828942F40052828104E082894DF6C8
:100E9000FF731A408281704702460020B1F5007F3F
:100EA00000D100BF13880B400BB1012000E00020EF
:100EB000704770B50246002400230025002040F64C
:100EC0006A16B14200D100BFC1F3421501F01F0301
:100ED000012606FA03F3012D02D19689334006E07C
:100EE000022D02D1168A334001E0968A33400C125B
:100EF000012606FA04F41688344013B10CB101201F
:100F000000E0002070BDF0B5034600240026002557
:100F1000002040F66A17B94200D100BF1846C1F35D
:100F2000421401F01F06012707FA06F5012C01D132
:100F30000C3004E0022C01D1103000E014301AB162
:100F400007682F43076002E00768AF430760F0BD02
:100F50002DE9F04786B005460E460024A24600BFA4
:100F6000A1460027B08900B100BF2F462C8A4CF65D
:100F7000FF700440F08804432C82AC894EF6F310D5
:100F80000440B08831890843718908430443AC8127
:100F9000AC8A4FF6FF400440B0890443AC8201A8FC
:100FA000FFF7C4FC1F48874202D1DDF810A001E022
:100FB000DDF80CA0A88900F4004040B10AEBCA009B
:100FC00000EB0A1031684900B0FBF1F807E00AEBCA
:100FD000CA0000EB0A1031688900B0FBF1F8642008
:100FE000B8FBF0F004012009642101FB1089A889F5
:100FF00000F4004040B1322000EBC900B0FBF1F03A
:1010000000F00700044308E0322000EB09106421DF
:10101000B0FBF1F000F00F0004432C8106B0BDE8F6
:10102000F08700000038014001468888C0F30800BE
:101030007047818941F0010181817047C1F3080245
:10104000828070470020704770B50B4D0C460346F8
:10105000D5E90C0188420BD9401A844200DD0446D0
:1010600022461846FFF75EF8686B2044686300E08C
:101070000024204670BD0000A8000020002070471A
:101080002DE9F041194C0D460746D4E90401401AF8
:1010900017490A88101A002802DC0020BDE8F081F8
:1010A000854200DD0546D4E906020026904210D3B1
:1010B000104A0988431911448B420AD30E1A9046EC
:1010C00032463946FFF72EF83744AD1B4046C4F888
:1010D000188035B12A463946FFF724F8A06928441C
:1010E000A0612169A81901442161D7E7A800002067
:1010F000682E0008DA01002010B5054C6068002851
:1011000005D10120606000F005F80020606010BD8E
:10111000A80000202DE9F047224CA06800283BD011
:10112000D4E90401421AE0684FF00006104335D0BC
:101130001D481E4FDFF878800088DFF878903D1852
:101140002046C1696AB1A069814203D38818A842C8
:1011500000D36A1A99F8003038F81300904200DA88
:1011600002461548E660007840F0800001F0F4FA8D
:10117000E1690144E16162698D420244626100D12A
:10118000E761216991420BD199F8002038F81210DB
:10119000814205D10120E060BDE8F087A660FBE751
:1011A000E660F9E7A8000020682E0008DA010020B8
:1011B000702E000883000020652E000810B50B4C2F
:1011C000206A18B1A06A401CA06210BD01202062F4
:1011D000606200F00DF8002060622062D4E90C012A
:1011E0008842F2D0401AFFF749FF10BDA800002046
:1011F00010B5134C144A1348216B1288144B081A6B
:10120000101A124A1B7832F8132090420EDB114854
:10121000007800F0FBFE216B08442063A06A0028E0
:101220000CD0616A002909D1401E06E00120E0626D
:10123000606A002802D0A06A401CA06210BD0000B5
:10124000A80000201A0200206A2E0008702E000854
:1012500083000020662E000810B50446400702D522
:101260002046FFF7ABFF200704D52046BDE810401D
:10127000FFF742BF10BD704708B501216846FFF770
:10128000E3FE012802D04FF0FF3008BD9DF80000BA
:1012900008BD0020704700207047000010B50B48C3
:1012A00000F042F8002810D0084A0948116801707F
:1012B0000B0A43700B0C8370090EC1701179017118
:1012C0005179417191798171012010BDE0000020B8
:1012D0001801002010B500F039F810BD0F4910B505
:1012E0000978C1B10E49A12202230A7020224A7056
:1012F00000228A70CA700A714A718B71CA710872B1
:10130000000A487207480A22007840F0800001F085
:1013100023FA012010BD002010BD00008100002034
:101320005A020020642E000801460748007908711F
:1013300005488079887104484079487102480068FE
:1013400008600120704700004C00002010B501210A
:101350000846FFF7DBFA01214804FFF7C7FAFFF759
:10136000B5FC05490548FFF714F805490348FFF7A0
:1013700010F8012010BD00002230000800080140D4
:101380002630000810B5FFF7A1FC10BD0146012072
:101390007047000070B50546284CA879082801D090
:1013A000002070BD0020A080687920B1012809D0FC
:1013B00002280BD102E00020208109E04FF4806078
:1013C000208105E04FF4C060208101E00020E8E7C3
:1013D00000BF287920B1012809D002280BD102E0F2
:1013E0000020E08009E04FF40050E08005E04FF479
:1013F0004050E08001E00020D3E700BF2879104989
:101400000871A87988716879487128680860286827
:1014100020600C2060810020A08121460948FFF750
:1014200097FD012240F225510648FFF76CFD01218E
:101430000448FFF725FD0120B3E7000074040020F5
:101440004C0000200044004001B501216846FFF730
:1014500017FE012802D04FF0FF3008BD9DF80000B4
:1014600008BD000010B51048002410494460846095
:10147000C4600461C0E90541C0E9071444620C4935
:101480008462C0E90B4141630480FFF77BFF06489B
:101490004FF4165138300160047144710821817194
:1014A000FFF778FF10BD0000A8000020DA0100203F
:1014B0001A02002010B5FFF7D5FF10BD70B5174C0C
:1014C00000250126206A50B9D4E90C10814206D1CA
:1014D0001348814203D02063E56225626063A06AFD
:1014E00070B1206A60B9E06A50B92662FFF780FEE9
:1014F0002562D4E90C01884202D0401AFFF7BEFDF4
:10150000D4E90101084308D1D4E90401884204D098
:101510006660A660FFF7FEFD656070BDA800002054
:101520001A020020002070470020704700207047FA
:10153000024910B50880FFF729FF10BDA800002060
:10154000084810B5C178026861F31F6206490A6055
:1015500002790A7142794A71807988710846FFF7E9
:1015600019FF10BD18010020E000002010B504464E
:101570002046FEF73FFE43F230012046FEF75AFEBA
:1015800010BD000010B50246937803F00F0190885B
:10159000937803F0800353B1294B1B88294C2468AE
:1015A00004EB01142360431C23F0010020E0244BD2
:1015B0001B88244C246804EB0114A3603E280ED938
:1015C00000F11F0323F01F000123C3EB401343F47A
:1015D00000431C4C246804EB0114E36008E0431C46
:1015E00023F001004302174C246804EB0114E3606C
:1015F000134B1B880344124C2380D37803F003035E
:1016000033B1012B07D0022B08D0032B0FD10BE0F5
:101610004FF400700BE04FF4806008E000200023DE
:101620000BB140F4807002E04FF4C06000BF00BF17
:101630000843054C04EB8103C3F8000C10BD000007
:101640003C000020380000200050004030B940210C
:10165000034A1180114609888031118070470000CB
:101660003C00002000F07EBA58B10121074A116009
:1016700000211160121D11604FF4E051121F116022
:1016800002E00321014A116070470000405C004005
:1016900010B50B4C0B48A28801788A4200D9CAB217
:1016A0001AB907490020183908718020216801F013
:1016B00053F8216801442160A188081AA08010BD58
:1016C000980000204D2E000810B5064C002021681F
:1016D00000F09CFC216801442160A188081AA080C8
:1016E00010BD000098000020704710B5044600218E
:1016F0002046FEF79FFD10BD10B5044643F22001C1
:101700002046FEF797FD10BD2DE9F047DFF8448233
:101710000646A8F1080580074FF0000AA5F1180455
:1017200024D500F0EDFF98F800004746C009FFF708
:10173000DBFFF888A8803978C1F3411010B1012887
:1017400077D17DE098F80120834FDFF810920C2AC2
:101750006FD2DFE802F0060C951C952B3B953F45B8
:10176000526100F05FFD33E0FFF792FF96E000204A
:1017700000F096FD00285CD000F0C8FF386820B16A
:101780006169002921D0082050E0484653E001203B
:1017900000F086FD002873D000F0B8FF38680028FC
:1017A000F3D06169002979D004203FE011F01F0FC8
:1017B00066D198F80200012140F08000207000F00E
:1017C0007F0000F08BFF00F0A1FF67E000F050FC0D
:1017D00078B3C9E711F01F0F52D15E481F3819E0E6
:1017E00000F0B4FD28B300F091FF386818B16169CA
:1017F00029B301201AE05A481DE001F01F01012918
:101800003ED16178A9B198F80400A178884237D216
:10181000544908442860A7E700F060FE48B100F092
:1018200075FF386830B1616949B1022001F0E6FA0C
:1018300034E025E04C48016809B1084680472DE0B6
:1018400011F01F0004D0012805D0022818D111E0A2
:1018500000F02AF913E000F02DF9F8B900F080F952
:10186000E0B900F0CFF8C8B900F0CEF8B0B900F098
:101870001FF904E000F0C4F880B900F017F968B966
:1018800098F80010090604D4B8F8060008B1002042
:1018900000E0802000F02CFFA5F804A0700735D5EB
:1018A00098F80000474600062ED4A88858B3FFF7E2
:1018B0000BFFA88838BB3878C0F34111F1B101297A
:1018C0001CD110F01F0004D0012805D0022815D12A
:1018D0000EE000F077F810E000F07AF898B900F028
:1018E00047F880B900F046F868B900F06FF804E0F6
:1018F00000F03CF838B900F067F820B9802000F01B
:10190000F7FEA5F804A001E000F006FF300713D5AC
:1019100098F80000000606D5A888217908430BD066
:10192000FFF7B6FE08E02078010605D500F07F003D
:101930002070002100F0D2FE700602D50020FFF7D3
:1019400015FE300604D5BDE8F0478020FFF70EBE37
:10195000BDE8F087A0000020DC2E0008D82E00088B
:10196000D02E00082C000020D42E00080020704744
:101970000020704710B51048104A01791278914242
:1019800003D00F4A1278914214D1417821B1022933
:1019900005D020290ED10AE0FFF7C6FD02E04088FD
:1019A000FFF7C4FD30B100F0B1FE012010BDFFF71C
:1019B000C7FDF7E7002010BDA0000020622E000840
:1019C000632E0008002070470020704700207047F9
:1019D00010B50948094A01791278914209D1407835
:1019E000092806D100F0D8FA18B100F08FFE0120C6
:1019F00010BD002010BD0000A00000204E2E0008E9
:101A0000002070470020704770B52249224A0879AB
:101A10001278904203D0214A1278904238D11D4862
:101A200049781F4C1F4D408804291FD007DC79B12D
:101A300001290FD002290BD0032929D111E0202937
:101A400006D021291AD022291BD0232920D11BE01E
:101A50002C6011E0FFF71FFC05E02C60FFF718FE7B
:101A60000AE0FFF716FC0028F7D111E0FFF7EAFAC9
:101A70000CE000BF00F04AFE012070BDFFF70EFC35
:101A8000F1E7FFF755FD01E0FFF74CFD0028F1D12C
:101A9000002070BDA0000020622E0008632E000808
:101AA0001801002098000020002070470020704797
:101AB000002070472DE9F041224C23492079097814
:101AC00088423DD16078214D214E224F0C2837D2DB
:101AD000DFE800F03606212D36363636361624324B
:101AE00000F070F960B3E078012802D0032803D039
:101AF00003E01948286000E02E60FFF7C9FD13E0FD
:101B0000E078022802D0032803D00DE013482860B3
:101B10000AE02E6008E000F03DF90AE000F014FA57
:101B20000CE000BF00F0F2FD0120BDE8F08100F004
:101B30003FF928B12F60E0E700F024FA0028F1D146
:101B40000020F2E7A00000204E2E000898000020A0
:101B50003600002018010020590100209A010020C1
:101B600000207047084800214170C1600161416157
:101B70008161C16141808180016241628162C18075
:101B8000C162018170470000E80000202DE9F05F8C
:101B9000DFF84081DFF840A1DFF840B10127504C69
:101BA00008F101090025A561606910B1A761BDE8D0
:101BB000F09F6761A088618888421AD3206AC0B903
:101BC000E561A580012398F8001008F1010218468C
:101BD00000F098FF0004000C60800CD04149C4F86C
:101BE0001C800978012902D8C4F81C903BE0401CF5
:101BF00060806088B8BBE068A8BB216999B33948A8
:101C00004246007801280FD81570A5800223521C87
:101C10000021012000F076FF0004000C608001D05C
:101C2000C4F81C9025611EE01678202E00D30026F3
:101C300007FA06F0084240D0701CC1B21170A580AE
:101C4000022308F10102012000F05CFF0104090CED
:101C5000618003D0491CC4F81C806180216907FAA7
:101C600006F0814321616088216A01432AD0A1885E
:101C7000401A9BF8001086B23AF81100B04200D228
:101C80000646676218483246E169007840F08000F5
:101C900000F062FDE06915493044E061A0883044FD
:101CA00080B2A080098888420AD29BF800103AF8D6
:101CB0001100B04204D1276205E0761CF6B2B4E709
:101CC000256200E065626561A06900287FF46BAF62
:101CD0006DE7000058010020562E00088300002008
:101CE000E80000205A2E00084F2E00085C2E000845
:101CF000F8B5194C194D0026E08800B9A5621848BE
:101D0000A16A007800F082F90004A16A000C014485
:101D1000A162E18801448BB2E3800AD011490988AD
:101D20008B4206D2114A1049127831F812108142C2
:101D300010D90F48017801200129009003D8002113
:101D4000064A022003E029786A1C02205B1E00F08C
:101D5000F7FFE680F8BD0000E800002099010020B0
:101D6000502E00085E2E0008562E0008830000202A
:101D70005B2E000810B50446000702D52046FFF789
:101D800005FF600704D52046BDE81040FFF7B0BF4F
:101D900010BD0000034804498078085C03490870BE
:101DA00001207047A000002034000020180100200E
:101DB00010B500F0A5FE02490870012010BD00001A
:101DC000180100200B4910B5C8780022012804D062
:101DD000022804D0032806D103E0074A02E00020CD
:101DE00010BD064A521C8978002300F08BFE0120AA
:101DF00010BD0000A0000020580100203500002088
:101E00002DE9F05F4648007800287DD0454800273E
:101E10003D4601784A1C0270434A1478042204EBC0
:101E2000440A02FA0AF2521E914201DB05700127B0
:101E30003E4900230A88FF2A01D2521C0A803C4AEC
:101E40008E46098832F81490894500D101238346D3
:101E5000002100699BF8006043E000BF4FF0000CD8
:101E60006FB1344A545CFF2C01D2641C5454324C80
:101E7000645C24B1525CA24201D34FF0010C2E4AA3
:101E80004FF0020808FA0AF8525C02FA08F44C45CE
:101E900002DA0AB1012400E0002433B12CB14FF082
:101EA000010808FA01F848EA0000DFF8908018F805
:101EB000018042450AD01F4A525C424503D30122A9
:101EC0008A40104300261C4A02F80180BCF1000F32
:101ED00005D014B901228A401043164A5554491CB2
:101EE000C9B2174A12789142B8D3CBF810005946BC
:101EF0008BF800600BB1AEF8005008B1CA6852B15F
:101F0000104A1378012200E003E09A409043CBF896
:101F10001000BDE8F09FBDE8F05F0020FFF736BE7F
:101F200081000020E8000020830000203000002015
:101F3000522E000832000020330000203400002020
:101F40005A2E00085801002010B50A480949807827
:101F5000C97810B1084A815409E00020074B084AAB
:101F600002E01954401CC0B21478A042F9D30120F9
:101F700010BD0000A000002033000020340000202D
:101F80005A2E0008034810B5807800F0D7FE0120D3
:101F900010BD0000A00000200C4908B5C878002240
:101FA000012804D0022804D0032806D103E0002031
:101FB00008BD074A00E0074A521C00230093CB8863
:101FC000897800F0BDFE012008BD0000A0000020BF
:101FD000990100203500002010B50548C06940F483
:101FE00000000349C86100F005F8FEF77DFC10BD54
:101FF000001002401420012181404209920002F1A8
:10200000E022C2F8001100BF704770472DE9F0438D
:1020100005460C4605F00F061248006800EB061056
:1020200080681149022202FB00190E48006800EB8B
:1020300006108089C0F309074FF0000805E039F861
:10204000041B2180A41C08F10108781CB8EB500F78
:10205000F5D34FF440512846FEF7ECF83846BDE87A
:10206000F08300003800002000600040704700004E
:102070007CB54048A0F120050178A0F1080411F0DA
:102080001F0102D0012973D15CE0C3783948394976
:102090002038394AC0788978082B69D2DFE803F004
:1020A0006804123F6868082C34482060122047E01A
:1020B000117800295CD018B1314820600A203FE037
:1020C0003048FAE712780AB9012851D018B12E48E1
:1020D0000090002008E02D48FAE7009A137813B129
:1020E00053881A440092401C8142F6D1009801782E
:1020F000E9B32060408823E01278C2B318B12448C5
:102100000090002008E02348FAE7009A137813B102
:1021100053881A440092401C8142F6D1E6E71E48DB
:102120000090002005E0009B1A780AB11A44009242
:10213000401C8142F7D100980178C1B1206000783D
:10214000019005E001A9684600F02AF800280DD0AA
:10215000A1880198814208D9104980B2A0800978ED
:10216000491E084201D10120287101207CBDFFE7F2
:102170000020FBE7A0000020492E0008062F0008E1
:10218000192F0008182F0008862F00081A2F0008A2
:10219000882F0008872F00088A2F00084D2E00087E
:1021A00030B5164A164C174BD5781279212D02D02E
:1021B000222D20D115E02478A2421CD1124A147895
:1021C000124A12780CB9012A15D042B1104A0260A5
:1021D0001046104A128810441860092008E00E4A80
:1021E000F5E72078824206D10C4818600C48008838
:1021F0000860012030BD002030BD0000A00000209C
:102200004E2E000898000020492E00088300002070
:10221000862F0008042F00081A2F0008E02E00085F
:10222000022F000870B51C481B4D0078A5F1080569
:1022300010F01F040AD01848A5F11801174B4A786E
:102240000079012C06D0022C24D109E012481A385A
:1022500028601DE0F2B1897888421BD2002015E089
:1022600000F08F04200605D504F00F064FF48030EF
:10227000B04001E00120A0400AB922070AD18A68D3
:10228000024207D0C9680142E8D0012018802B60C3
:10229000012070BD002070BDA000002018010020AA
:1022A00070B5294A0146A2F12004107810F01F03EE
:1022B0001046408804D0012B28D0022B26D110E0F4
:1022C000012823D129B100F045FAE08840F002004E
:1022D00005E0002000F03EFAE08820F00200E080F7
:1022E00030E0127902F08F06320605D506F00F02B3
:1022F0004FF48035954001E00125B54062782AB160
:10230000320703D0A2682A4200D008B1002070BD75
:102310000D482038C06800EA050031B190B9304658
:1023200000F0E6F9E06828430BE058B12069284244
:1023300008D13046FFF71AF93046FFF797FEE068FC
:10234000A843E060012070BDA00000202DE9F84FF7
:102350005C4F00200090387810F01F0F6FD1B878D4
:102360004FF000094FF0010B4FF4803AA7F120061F
:1023700000287AD0544801783046C07809B901283D
:102380005DD008B1514C6BE0514C69E06078022897
:1023900004D0042844D0052860D144E06179B8789D
:1023A00081423BD170702079B0700020494A4A497F
:1023B00003E000BF02F80090401C0B889842F9D35C
:1023C0000125B0460BFA05F0D8F80810084202D0F3
:1023D0002846FFF78AF9D8F808100AFA05F00842EB
:1023E00003D045F08000FFF780F96D1C102DE9D374
:1023F0004FF00110C8E902090120C8F81090FFF75A
:1024000025F9E0794006B8F8060002D540F0010051
:1024100001E020F00100A8F806001FE060881EE03F
:10242000E07800901AE00098C0B9A07800F08F051D
:10243000280605D505F00F010AFA01F002E03CE09C
:102440000BFA05F0B16801432046B160FFF79AF836
:102450002846FFF751F9284600F030F92078044467
:102460002078002892D124E0FFE7C84686F8019042
:1024700001245D464FEA0A09B16805FA04F00842F2
:1024800002D02046FFF731F9B16809FA04F008429A
:1024900003D044F08000FFF728F9641C102CEBD324
:1024A0004FF00110C6E902080020C6F81080FFF7BF
:1024B000CDF8B8787178884202D00020BDE8F88F56
:1024C0000120FBE7A0000020492E0008862F00080D
:1024D0001A2F00082C0000204A2E00082DE9FC5F6E
:1024E000444E00273D463078BB4600F01F00B846FA
:1024F00001287DD1A6F120014878002875D03E48FA
:10250000BA4602780846C0780AB9012870D08946D0
:1025100008B13A4C65E03A4C63E06078022804D098
:10252000042809D005285AD117E0617999F80100EB
:10253000814254D0608853E0A7783079E5784FF035
:102540000008B8424BD1B078A84248D12D484FF08E
:10255000010A10F807B0C55541E03079B8423ED1C4
:10256000A07800F08F000190000605D5019800F0DA
:102570000F014FF4803001E0019901208840009064
:10258000B078A84217D1D9F80810009A2046114314
:10259000C9F80810D9F80C109143C9F80C10FEF7CF
:1025A000F1FF0198FFF7A8F8019800F087F800996B
:1025B00048EA010813E05D4511D1009918EA010FBE
:1025C0000DD1D9F80810009A9143C9F80810D9F82C
:1025D0000C109143C9F80C100198FFF786F8207889
:1025E00004442078002898D15046BDE8FC9FFFE7BE
:1025F0000020FAE7A0000020492E0008862F0008DE
:102600001A2F00082C0000200020274908602748C6
:10261000006808B1481400E0002040F41C40234941
:10262000096811B14FF4804100E0002108432049BE
:10263000096811B14FF4007100E0002108431C4902
:10264000096811B14FF4807100E000210843164978
:10265000091F0860402017490880002012490C31EA
:102660000860144800881449096808601148008807
:10267000403010490880084600880F490968886082
:102680000C48008840300B49088048F2FF700A4926
:102690000968C8604FF448500349443908608020F5
:1026A0000149083108607047445C00408C2E0008E6
:1026B000882E00083C0000203800002010B5044699
:1026C0002046FDF797FD10BDFEF7F4BE10B5FFF7ED
:1026D00097FBBDE81040FEF7F1BE000001B1704766
:1026E00040F08002014B1A6000BFF8E74C5C0040EC
:1026F00010B5044641F210012046FDF79BFD10BDC8
:1027000001490020FFF782BCA000002000221146F2
:10271000802000F021B8000001490020FFF776BCBE
:10272000180100200548006840F0080003490860CF
:102730000846006840F0040008607047405C0040B4
:102740000348006820F00800014908607047000055
:10275000405C0040704700002DE9F04707460D46F9
:10276000144607F00F061648006800EB06100068D4
:102770001449022202FB001A4FF0000805E02888E5
:102780004AF8040BAD1C08F10108601CB8EB500FAF
:10279000F5D30B48006800EB061044600A4901EBD2
:1027A0008600D0F8000C1FFA80F909F030001028DC
:1027B00003D030213846FDF73DFD2046BDE8F087C7
:1027C00038000020006000400050004070B55048C4
:1027D000056805F4806068B1FFF716FF00F010FB94
:1027E0004C48006810B14B48006880476FF4806027
:1027F0004749086005F4006058B1FFF793FF464869
:10280000006810B14448006880476FF40060404998
:10281000086005F4805058B1FFF792FF3F48006808
:1028200010B13E48006880476FF480503849086016
:1028300005F4007048B13A48006810B138480068A3
:1028400080476FF400703249086005F4804050B151
:102850003448006818B102203249096888476FF48B
:1028600080402B49086005F4005050B12D480068A5
:1028700018B101202B49096888476FF4005024499A
:1028800008603CE06FF400402149086005F00F0447
:10289000254901EB8400D0F8006C06F40040C0B17B
:1028A00026F4004048F68F7108401F4A02EB84016D
:1028B000C1F8000C1D4850F8240050B106F4006225
:1028C0000AB1022200E004221046184A52F82410ED
:1028D000884706F0800090B126F0800048F68F719E
:1028E0000840114A02EB8401C1F8000C0F4850F86F
:1028F000240020B10D4850F82410082088470448CF
:102900000068054600F400400028BBD170BD0000FF
:10291000445C0040782E00087C2E0008802E0008C1
:10292000882E00088C2E000800500040902E0008D1
:1029300002E008C8121F08C1002AFAD17047704788
:10294000002001E001C1121F002AFBD170470000E6
:10295000FDF70CFCFEF7CEF8FDF70EFF56480068B9
:1029600038B1554855490860084600680168544820
:102970008847FDF7F9FE0A20FDF722FC00F030FA47
:10298000012000F0BBF800204E4908601AE04D48D5
:1029900001680068401C4B4A106011B9FDF7ECFE5D
:1029A0000DE048480068052802D1FDF7DDFE06E08D
:1029B00044480068322802D10020424908600A20B9
:1029C000FDF7FEFB00F092F80028E0D0FDF7CCFE0A
:1029D0006420FDF7F5FB00203A4908603A483B497E
:1029E00008604FF0FF303A4908603A49086061E0FA
:1029F0003248006880B9334801680068401C314A99
:102A000010603548814204D1002011460860FDF76E
:102A1000C7FE00F035F91BE000F032F9A8B92B48E9
:102A20000068B0F57A7F02D1FDF7A6FE07E02748DF
:102A3000006820B9FDF798FE234824490860234820
:102A40000068401E2149086002E01F481F490860D5
:102A5000FDF7CCFE1E480068401C18B9FEF70CFCC0
:102A60001B4908601A480068401C58B1184908788A
:102A7000FEF7F6F816490968884203D14FF0FF3097
:102A80001349086013480068401C18B9FEF7BAF8EB
:102A9000104908600F480068401C58B10D4908787B
:102AA000FEF7D2FC0B490968884203D14FF0FF3092
:102AB000084908609CE7000000400008140000205E
:102AC000242E000820000020400D030024000020D8
:102AD000180000201C00002040420F0010B500F03C
:102AE000AFF8BDE81040FEF7F5BB000002484078A3
:102AF000002800D00120704780000020FEF7B4BD00
:102B0000002070472DE9F04104460F4615461E4649
:102B1000012C02D0032C38D136E026B1012E04D08E
:102B2000022E2FD100E000BF2CE01948006819499F
:102B30000968884202D118480078F8B11748144A49
:102B4000126800EB821140222846FDF7EBFA10488C
:102B50000068401C0E49086008460068402801D102
:102B6000002008600A4800680A490968884202D1C2
:102B70000020094908704020BDE8F0810120084983
:102B8000087000BF00BF00E000BF00BF0020F3E7F7
:102B900068000020640000206100002084140020F0
:102BA000600000202DE9F04107461F4816460088C6
:102BB000824202DD0020BDE8F0811C480078002838
:102BC000F9D01B4C01224FF00008E26000E0B0B1E8
:102BD000626A12B1A269002AF9D1164D3246681C08
:102BE0002F70FDF79FFAE5611349A4F80480B0B295
:102BF0006080097801290BD86D1CE5610AE0C4F8F2
:102C00000C80C4F81C80A4F80480A4F80280D1E7EA
:102C1000401C60800020FEF7B9FF084800F80780DC
:102C20000120C4F80C80C6E75C2E0008810000205B
:102C3000E8000020580100205A2E00083200002031
:102C40000020084908700849086008490860012008
:102C500007490870002007490870074908600749BC
:102C60000860704754000020580000205C000020DD
:102C70006000002061000020640000206800002047
:102C800010B52548006825490968884203D12448C1
:102C9000007800283DD0234A234B1B6802EB8311A8
:102CA000224A1D4B1B6802EB8310FDF745FC1A48B6
:102CB0000068441C402C00D10024174804600068C0
:102CC00016490968884202D1002015490870184841
:102CD000007860B10020164908701248124A126844
:102CE00000EB821140220020FFF75CFF0FE00E484E
:102CF0000068441C402C00D100240B48046000688C
:102D00000C490968884202D101200B490870012052
:102D100010BD0020FCE700005C00002058000020EF
:102D2000540000208414002064000020840400204B
:102D30006000002068000020610000207047000053
:102D40002DE9F0410646884614461D46069F022E90
:102D500002D0032E36D134E005B933E020780728BD
:102D600007D11A48006818B118490968886880476F
:102D700028E01748007830B11648006816490968FD
:102D8000884200D11EE01549124A126801EB8210F8
:102D90002A462146FDF7C6F90E480068401C0D4939
:102DA000086008460068402801D1002008600948F2
:102DB000006809490968884202D101200449087065
:102DC00000E000BF00BFBDE8F0810000140000205B
:102DD00054000020580000205C00002084040020E3
:102DE000054910B50020C870FFF778FEFFF70DF910
:102DF000BDE81040FFF7F0B88000002070470000E9
:102E000006484FF0011201780548C1800021017089
:102E10004170C0E90221016170470000482E00089E
:102E20008000002089070008D50700080002021072
:102E3000006003100060004801000048FF870000A8
:102E4000FFFF000000E00000000003000340020359
:102E50000300010040004000040001014000400068
:102E6000010000010102020040004000400010008B
:102E70004000400000000000C926000800000000DB
:102E80000000000000000000CD2600080000000047
:102E9000091700087712000859120008751D00086C
:102EA0000000000000000000000000000000000022
:102EB0000000000000000000000000000000000012
:102EC0000000000000000000000000000000000002
:102ED000651600080000000000000000000000006F
:102EE0000600FF0901A101150026FF0075089540A5
:102EF0000901810295400901910295010901B10280
:102F0000C0002100540012010002EF02014051C232
:102F100001F0000101020301000009026B0003013E
:102F2000008032080B0002020201040904000001C3
:102F300002020004052400100105240101010424FB
:102F4000020205240600010705810340000209046E
:102F50000100020A00000507050202400000070503
:102F60008202400000090402000203000006092159
:102F7000000100012221000705830340000107052D
:102F800003034000010000000000040309041203D1
:102F900058003800390033002000410052004D0035
:102FA000140343004D005300490053002D0044001A
:102FB000410050001A033000300030003100410061
:102FC00030003000300030003000300030001C0392
:102FD00043004D005300490053002D0044004100C0
:102FE000500020004300440043001C0343004D00F8
:102FF0005300490053002D004400410050002000C0
:103000004400430049001C0343004D0053004900A5
:1030100053002D00440041005000200048004900AA
:103020004400080003480400031808000048040096
:103030000048000074300008000000201801000063
:10304000302900088C31000800280020080000000A
:10305000302900088C310008180100206C23000082
:1030600040290008943100080828002018000000BA
:103070004029000800A24A040000000000000000EF
:103080000102030406070809000000000000000018
:10309000000000000000000000000000FFFFFFFF34
:1030A0000000000000000000000000000060004080
:1030B0000000000000000000000000000000000010
:1030C0000000000000000000000000000000000000
:1030D00000000000000000000000000000000000F0
:1030E00000000000010203040102030406070809AE
:1030F00002040608000000000000000000000000BC
:1031000000000000000000000000000000000000BF
:1031100000000000000000000000000000000000AF
:10312000000000000000000000000000000000009F
:10313000000000000000000000000000000000008F
:10314000000000000000000000000000000000007F
:10315000000000000000000000000000000000006F
:10316000000000000000000000000000000000005F
:10317000000000000000000000000000000000004F
:10318000000000000000000000000000000000003F
:04319000000000003B
:020000040800F2
:10400000A5550008554100089955000870B50646A9
:104010000D46307808B9012400E03478012C05D130
:10402000012006490870FCF741FC03E000202870DD
:10403000012070BD00BF2C700120FAE70828002085
:1040400018B502460B461078547840EA04210C4813
:1040500000680C4CB0FBF4F0801C0324B0FBF4F0BF
:1040600041430846009000BF00BF009C641E0094BE
:10407000002CFAD100BF00201870012018BD0000EC
:104080000000002040420F0010B504460020044903
:104090000870FCF7FBFB00202070012010BD000021
:1040A0000828002002460020052A1AD008DC012A30
:1040B0000FD0022A0ED0032A0DD0042A21D10BE002
:1040C000062A0FD0F02A0ED0FE2A16D0FF2A18D1C9
:1040D0000DE016E015E014E00B4B1B680B600420AC
:1040E0000FE00EE00DE001230B70012009E04023FA
:1040F0000B7000234B70022003E040230B70012063
:1041000000BF00BF70470000B855000870B50446F6
:104110000D46207810B1012810D107E0627802F036
:1041200001000B4A1268116888470BE0627802F0C0
:104130000100074A12685168884703E0FF20287091
:10414000012070BD00BF002028700120F9E70000A9
:104150000028002070B506460D463078802807DB21
:1041600030789F2804DC2946304600F09DF870BD69
:10417000307805F8010B16F8010B172870D2DFE82C
:1041800000F00C141A204E54658878252B888888F6
:10419000888830363C4248494A003078691CFFF72D
:1041A00081FF04462C70A01CE1E729463046FFF74A
:1041B000ADFF044672E029463046FFF727FF04466C
:1041C0006CE02846FFF760FF044667E0294630466A
:1041D000FFF736FF044661E0284600F06AF804461F
:1041E0005CE02946304600F045FB044656E029468F
:1041F000304600F005FB044650E02946304600F00A
:10420000DDFB04464AE02946304600F079F80446D2
:1042100044E000BF00BFFF2028700220A7E7294626
:10422000304600F0F5FB044638E01E4800780128CF
:1042300005D12946304600F075F8044604E0002018
:1042400028706870022400BF00BF27E0154800787E
:10425000012806D12946304600F016FA044606E049
:1042600017E0002028706870A870032400BF00BF0A
:1042700014E00C480078012805D12946304600F0AA
:104280001FF8044603E0FF20287002206FE700BFFC
:1042900004E0FF2005F8010C012068E700BF601C66
:1042A00065E70000082800200246FF200870012072
:1042B0007047014600BF0020487008700220704718
:1042C00038B504460D460D480078012803D0FF207C
:1042D0002870012038BD6078A17840EA0120E1789B
:1042E00040EA0140217940EA0160009069460020DF
:1042F00000F010FC002028700120EBE708280020C7
:1043000010B50246137803F00300401C044C2075DE
:10431000C3F380040248447500200870012010BDDA
:10432000082800202DE9F04F85B006460C460020F5
:1043300003900025A146A41CD14908708246029032
:10434000761C16F8010B049047E116F8018B08F073
:10435000020000287ED0BAF1000F3CD0C94847893E
:1043600008F01100012811D100BF6946404600F055
:10437000D1FB0546022D1CD1381EA7F101018FB2D9
:1043800017D0BF4800780028EFD012E000BF694680
:104390000E2000F0BFFB0546022D08D1381EA7F104
:1043A00001018FB203D0B64800780028EFD04FF05B
:1043B000000A012D00D017E1009804F8010B0098C5
:1043C000000A04F8010B0098000C04F8010B009897
:1043D000000E04F8010B08F0100000285AD03078C5
:1043E000717840EA0120B17840EA0140F17840EA72
:1043F000016B361DA3488089019008F00100A8B127
:10440000A048478900BF0021404600F083FB0546D5
:10441000022D08D1381EA7F101018FB203D09848B0
:1044200000780028EFD0012D00D0DDE000BF9548D6
:10443000478900BF6946404600F06CFB0546022DE7
:104440000AD1381EA7F101018FB205D08C4800783F
:10445000002800E063E0EDD0012D00D00EE0894897
:10446000006900990840584508D00198411E89B25A
:10447000019118B1824800780028D8D000BF814847
:10448000006900990840584501D045F01005012DFC
:1044900042D0A9E07B48478908F00100C8B1BAF1D1
:1044A000000F39D100BF0021404600F033FB054624
:1044B000022D08D1381EA7F101018FB203D0704838
:1044C00000780028EFD0012D00D08DE04FF0010AD8
:1044D00022E000BF6946404600F01CFB0546022D65
:1044E00008D1381EA7F101018FB203D064480078CB
:1044F0000028EFD0012D00D076E0009804F8010BE1
:104500000098000A04F8010B0098000C04F8010B55
:104510000098000E04F8010B0020029055E0BAF15B
:10452000000F26D05748478900BF69460E2000F08B
:10453000F1FA0546022D08D1381EA7F101018FB20C
:1045400003D04F4800780028EFD0012D00D04BE079
:10455000009804F8010B0098000A04F8010B009879
:10456000000C04F8010B0098000E04F8010B4FF04A
:10457000000A3078717840EA0120B17840EA0140C1
:10458000F17840EA01600090361D08F0200020B16B
:104590003C4800990161012517E03A48478900BF6E
:1045A0006946404600F0B6FA0546022D08D1381E8D
:1045B000A7F101018FB203D0314800780028EFD075
:1045C000012D00D010E0012002900398401CC0B2E1
:1045D00003902B48007800B106E00498411EC9B250
:1045E000049100287FF4B1AE00BF012D3DD1BAF196
:1045F000000F25D02348478900BF69460E2000F0F0
:1046000089FA0546022D08D1381EA7F101018FB2A3
:1046100003D01B4800780028EFD0012D00D025E002
:10462000009804F8010B0098000A04F8010B0098A8
:10463000000C04F8010B0098000E04F8010B14E0C4
:10464000029890B10F48478900BF00210E2000F06A
:1046500061FA0546022D08D1381EA7F101018FB27B
:1046600003D0074800780028EFD000BF039889F8EE
:10467000000089F80150A4EB090005B0BDE8F08FF7
:1046800004280020082800202DE9F84F04460D4694
:104690004FF0000B0026A846ED1C0020564908707C
:1046A000641C2078617840EA012AA41CBAF1000F4A
:1046B00000D195E014F8017B07F0020000284FD0EC
:1046C00007F00100B0B14D48B0F80A9000BFF8B251
:1046D000002100F01FFA0646022E08D1B9F10000B1
:1046E000A9F1010903D0444800780028EFD0012E39
:1046F00000D075E02EE0BAF1000F03D107F0010001
:1047000000B10E273D48B0F80A9000BFF8B26946E4
:1047100000F000FA0646022E08D1B9F10000A9F116
:10472000010903D0344800780028EFD0012E00D0D2
:1047300056E0009805F8010B0098000A05F8010BF7
:104740000098000C05F8010B0098000E05F8010B0D
:104750000BF1010BBAF10000AAF1010ACBD13EE046
:1047600024E02078617840EA0120A17840EA014005
:10477000E17840EA01600090241D2048B0F80A90DA
:1047800000BFF8B2694600F0C5F90646022E08D10E
:10479000B9F10000A9F1010903D0174800780028F9
:1047A000EFD0012E00D01BE00BF1010BBAF100009D
:1047B000AAF1010AD5D11148B0F80A9000BF002132
:1047C0000E2000F0A7F90646022E08D1B9F100002C
:1047D000A9F1010903D0084800780028EFD000BFF4
:1047E00088F800B04FEA1B2088F8010088F80260C2
:1047F000A5EB0800BDE8F88F042800200828002059
:1048000030B502460C461078557840EA0520957878
:1048100040EA0540D57840EA05631BB9FF202070C7
:10482000012030BD11480068B3EB900F04D3012084
:104830000F4D6870686014E000200D4D6870581EC0
:104840000A4D2D6800EB5500B0FBF3F1022905D9A4
:10485000891E881C0325B0FBF5F100E00121044806
:104860004160002020700120DBE7000000000020F4
:10487000082800202DE9F0470646884634787578E8
:10488000B078F17840EA0120317940EA014071794D
:1048900040EA016705F0010038B104F0010010B1F1
:1048A00000F0DCF801E000F0C9F805F0020088B182
:1048B00004F0020030B100BF4FF480403B49086073
:1048C00000BF07E000BF4FF480403849091D086071
:1048D00000BF00BF05F0200010B1601100BF00BF95
:1048E00005F0800010B1E011FBF7B8FF002F49D0B0
:1048F0002F48874200D9074600BF00204FF0E02133
:1049000088612C48006878432B49B0FBF1F04FF0E8
:10491000E02148610520086100BF00BF05F00100EB
:1049200020B100F093F8604000B11BE005F00200F8
:1049300028B100F0DBF880EA640000B112E005F075
:10494000200028B100BF002080EA641000B109E017
:1049500005F0800028B100F0D1F880EAE41000B141
:1049600000E007E000BF4FF0E0200069C0F3004026
:104970000028D3D000BF00BF00204FF0E021086125
:1049800000BF00BF00F062F8814600F0AFF849EACE
:104990004000002140EA411900F0B0F849EAC01097
:1049A000C4B288F800400120BDE8F087100C014037
:1049B000C0C62D000000002040420F0070B5044624
:1049C0000D4614F8016B0EB94FF48076214630463F
:1049D00000F0A2FD00202870012070BD10B509482C
:1049E000006840080849B0FBF1F0801E07494860A4
:1049F000642106484181012004490875FBF746FF00
:104A000010BD00000000002040420F0008280020D8
:104A100002461078084B18725078937840EA0323C6
:104A200005484381D078137940EA03230248838103
:104A30000020087001207047082800204FF4005023
:104A40000149086070470000140C014002480068EA
:104A5000C0F34030704700000C0C01404FF4005090
:104A60000149086070470000100C014004480068CC
:104A700000F4804008B1012070470020FCE70000EE
:104A8000080C014000F0010121B14FF48041044ABB
:104A9000116004E04FF48041014A121D116070471B
:104AA000100C014000BF0748006820F0706040F023
:104AB0000060044908604FF4804002490C310860EE
:104AC00000BF7047040C014000BF0748006820F099
:104AD000706040F04070044908604FF48040024923
:104AE0001031086000BF7047040C014002480068A4
:104AF000C0F3803070470000080C01400448006893
:104B000000F0010008B1012070470020FCE7000020
:104B1000080C014070B504460D460648407820B1A7
:104B20002946204600F008F870BD2946204600F0CE
:104B3000ABF9F9E7082800202DE9F04706468A4638
:104B40004FF000080120FFF79DFFFFF777FF00BF40
:104B500000BFFFF783FF00BF00BF35462846FFF7C1
:104B600091FFFFF76BFF00BF00BFFFF777FF00BFAC
:104B700000BF08EB050000F0FF0875102846FFF79E
:104B800081FFFFF75BFF00BF00BFFFF767FF00BFBC
:104B900000BF08EB050000F0FF08B5102846FFF73E
:104BA00071FFFFF74BFF00BF00BFFFF757FF00BFCC
:104BB00000BF08EB050000F0FF08F5102846FFF7DE
:104BC00061FFFFF73BFF00BF00BFFFF747FF00BFDC
:104BD00000BF08EB050000F0FF084046FFF752FF5A
:104BE000FFF72CFF00BF00BFFFF738FF00BF00BF7B
:104BF0000020FFF747FFFFF721FF00BF00BFFFF7CF
:104C00002DFF00BF00BF0120FFF73CFFFFF716FF9D
:104C100000BF00BFFFF722FF00BF00BFFFF742FF4A
:104C20009848047D09E0FFF709FF00BF00BFFFF7C8
:104C300015FF00BF00BF601EC4B2002CF3D1FFF708
:104C4000FDFE00BF00BFFFF711FF0546FFF706FF9F
:104C500000BF00BFA946FFF7F1FE00BF00BFFFF78E
:104C600005FF0546FFF7FAFE00BF00BF49EA450011
:104C700000F0FF09FFF7E2FE00BF00BFFFF7F6FEFE
:104C80000546FFF7EBFE00BF00BF49EA850000F0D4
:104C9000FF09B9F1010F7DD106F00200002842D0D2
:104CA0000027A046202413E0FFF7C8FE00BF00BF86
:104CB000FFF7DCFE0546FFF7D1FE00BF00BF08EBA3
:104CC000050000F0FF087F0847EAC577601EC4B200
:104CD000002CE9D1FFF7B2FE00BF00BFFFF7C6FE10
:104CE0000546FFF7BBFE00BF00BF88EA050000F0E5
:104CF000010008B14FF00809BAF1000F01D0CAF85D
:104D000000706048047D09E0FFF798FE00BF00BF17
:104D1000FFF7A4FE00BF00BF601EC4B2002CF3D199
:104D2000FFF7D2FE35E05748047D09E0FFF786FE25
:104D300000BF00BFFFF792FE00BF00BF601EC4B2FD
:104D4000002CF3D1FFF7C0FEDAF80070A046202453
:104D500011E0F8B2FFF796FEFFF770FE00BF00BF4C
:104D6000FFF77CFE00BF00BF08EB070000F0FF0864
:104D70007F08601EC4B2002CEBD14046FFF782FED4
:104D8000FFF75CFE00BF00BFFFF768FE00BF00BF7B
:104D900000BF00E018E03B48047A7CB10020FFF738
:104DA00071FE09E0FFF74AFE00BF00BFFFF756FEA5
:104DB00000BF00BF601EC4B2002CF3D10120FFF77A
:104DC00061FE4846BDE8F087B9F1020F02D0B9F1A3
:104DD000040F40D12B48407D80B106F0020068B13D
:104DE000212409E0FFF72AFE00BF00BFFFF736FECF
:104DF00000BF00BF601EC4B2002CF3D12148047D67
:104E000009E0FFF71BFE00BF00BFFFF727FE00BF52
:104E100000BF601EC4B2002CF3D1FFF755FE194845
:104E2000407D98B106F0020080B90020FFF72AFE0D
:104E3000212409E0FFF702FE00BF00BFFFF70EFECE
:104E400000BF00BF601EC4B2002CF3D10120FFF7E9
:104E500019FE4846B6E70B48007D2130C4B209E090
:104E6000FFF7ECFD00BF00BFFFF7F8FD00BF00BF7C
:104E7000601EC4B2002CF3D10120FFF703FE4846A8
:104E8000A0E70000082800202DE9F84F06468A46D2
:104E90004FF000080120FFF7F5FDFFF7CFFDFD49BA
:104EA0004868009000BF00BF0099491E009100298A
:104EB000FAD100BFFFF7D2FDF6494868009000BF65
:104EC00000BF0099491E00910029FAD100BF354664
:104ED0002846FFF7D7FDFFF7B1FDEE49486800907F
:104EE00000BF00BF0099491E00910029FAD100BF00
:104EF000FFF7B4FDE7494868009000BF00BF009984
:104F0000491E00910029FAD100BF08EB050000F00E
:104F1000FF0875102846FFF7B5FDFFF78FFDDD4947
:104F20004868009000BF00BF0099491E0091002909
:104F3000FAD100BFFFF792FDD6494868009000BF44
:104F400000BF0099491E00910029FAD100BF08EB6B
:104F5000050000F0FF08B5102846FFF793FDFFF7A6
:104F60006DFDCC494868009000BF00BF0099491E04
:104F700000910029FAD100BFFFF770FDC5494868CC
:104F8000009000BF00BF0099491E00910029FAD18E
:104F900000BF08EB050000F0FF08F5102846FFF7FA
:104FA00071FDFFF74BFDBB494868009000BF00BF93
:104FB0000099491E00910029FAD100BFFFF74EFD6C
:104FC000B4494868009000BF00BF0099491E009195
:104FD0000029FAD100BF08EB050000F0FF084046A9
:104FE000FFF750FDFFF72AFDAA494868009000BF6F
:104FF00000BF0099491E00910029FAD100BFFFF7B8
:105000002DFDA4494868009000BF00BF0099491ECB
:1050100000910029FAD100BF0020FFF733FDFFF710
:105020000DFD9C494868009000BF00BF0099491ED3
:1050300000910029FAD100BFFFF710FD954948689B
:10504000009000BF00BF0099491E00910029FAD1CD
:1050500000BF0120FFF716FDFFF7F0FC8D494868FF
:10506000009000BF00BF0099491E00910029FAD1AD
:1050700000BFFFF7F3FC87494868009000BF00BFFE
:105080000099491E00910029FAD100BFFFF70AFDDF
:105090008048047D1BE0FFF7D1FC7E494868009002
:1050A00000BF00BF0099491E00910029FAD100BF3E
:1050B000FFF7D4FC77494868009000BF00BF009913
:1050C000491E00910029FAD100BF601EC4B2002C15
:1050D000E1D1FFF7B3FC6F494868009000BF00BF03
:1050E0000099491E00910029FAD100BFFFF7BEFCCC
:1050F0000546FFF7B3FC67494868009000BF00BF52
:105100000099491E00910029FAD100BFA946FFF776
:1051100095FC60494868009000BF00BF0099491E97
:1051200000910029FAD100BFFFF7A0FC0546FFF768
:1051300095FC58494868009000BF00BF0099491E7F
:1051400000910029FAD100BF49EA450000F0FF09AB
:10515000FFF774FC4F494868009000BF00BF0099FA
:10516000491E00910029FAD100BFFFF77FFC0546D8
:10517000FFF774FC47494868009000BF00BF0099E2
:10518000491E00910029FAD100BF49EA850000F0CC
:10519000FF09B9F1010F7CD106F0020000287CD094
:1051A00000278846202425E0FFF748FC3949486855
:1051B000009000BF00BF0099491E00910029FAD15C
:1051C00000BFFFF753FC0546FFF748FC314948682C
:1051D000009000BF00BF0099491E00910029FAD13C
:1051E00000BF08EB050000F0FF087F0847EAC5771D
:1051F000601EC4B2002CD7D1FFF720FC25494868B7
:10520000009000BF00BF0099491E00910029FAD10B
:1052100000BFFFF72BFC0546FFF720FC1D4948683F
:10522000009000BF00BF0099491E00910029FAD1EB
:1052300000BF88EA050000F0010008B14FF008093E
:10524000BAF1000F01D0CAF800701248047D1BE0CB
:10525000FFF7F4FB0F494868009000BF00BF0099BA
:10526000491E00910029FAD100BFFFF7F7FB094959
:105270004868009000BF00BF0099491E00910029B6
:10528000FAD100BF601EC4B2002CE1D1FFF71CFCB4
:105290006EE098E008280020FFE79E48047D1BE0B0
:1052A000FFF7CCFB9B494868009000BF00BF009906
:1052B000491E00910029FAD100BFFFF7CFFB9549A5
:1052C0004868009000BF00BF0099491E0091002966
:1052D000FAD100BF601EC4B2002CE1D1FFF7F4FB8D
:1052E000DAF80070A046202423E0F8B2FFF7CAFBEA
:1052F000FFF7A4FB87494868009000BF00BF0099F2
:10530000491E00910029FAD100BFFFF7A7FB814990
:105310004868009000BF00BF0099491E0091002915
:10532000FAD100BF08EB070000F0FF087F08601EFD
:10533000C4B2002CD9D14046FFF7A4FBFFF77EFB97
:1053400074494868009000BF00BF0099491E009151
:105350000029FAD100BFFFF781FB6E494868009031
:1053600000BF00BF0099491E00910029FAD100BF7B
:105370006848047A0CB30020FFF784FB1BE0FFF7BA
:105380005DFB64494868009000BF00BF0099491E5A
:1053900000910029FAD100BFFFF760FB5D49486822
:1053A000009000BF00BF0099491E00910029FAD16A
:1053B00000BF601EC4B2002CE1D10120FFF762FBE8
:1053C0004846BDE8F88FB9F1020F02D0B9F1040FD9
:1053D00077D15048407D10B306F00200F8B1212487
:1053E0001BE0FFF72BFB4B494868009000BF00BF54
:1053F0000099491E00910029FAD100BFFFF72EFB4A
:1054000044494868009000BF00BF0099491E0091C0
:105410000029FAD100BF601EC4B2002CE1D13D4882
:10542000047D1BE0FFF70AFB3A494868009000BF83
:1054300000BF0099491E00910029FAD100BFFFF773
:105440000DFB34494868009000BF00BF0099491E19
:1054500000910029FAD100BF601EC4B2002CE1D136
:10546000FFF732FB2B48407D28B306F0020010BB4B
:105470000020FFF707FB21241BE0FFF7DFFA254997
:105480004868009000BF00BF0099491E00910029A4
:10549000FAD100BFFFF7E2FA1E494868009000BF4A
:1054A00000BF0099491E00910029FAD100BF601E7B
:1054B000C4B2002CE1D10120FFF7E4FA484680E7AE
:1054C000FFE71448007D2130C4B21BE0FFF7B6FAB5
:1054D00010494868009000BF00BF0099491E009124
:1054E0000029FAD100BFFFF7B9FA0A4948680090CD
:1054F00000BF00BF0099491E00910029FAD100BFEA
:10550000601EC4B2002CE1D10120FFF7BBFA48466F
:1055100057E7000008280020F8B504460D4600278C
:1055200033E0641E17B915F8016B082706F0010077
:1055300030B100BF4FF480401549086000BF07E05C
:1055400000BF4FF480401249091D086000BF00BF32
:10555000FFF774FA0F494868009000BF00BF009938
:10556000491E00910029FAD100BFFFF777FA0949D7
:105570004868009000BF00BF0099491E00910029B3
:10558000FAD100BF7610781EC7B2002CC9D1F8BD81
:10559000100C0140082800200120014908707047C4
:1055A0000428002010B5044602480460FFF716FAEC
:0C55B00010BD000000280020312E30004B
:04000005080000ED02
:00000001FF
